{
  "_format": "hh-sol-artifact-1",
  "contractName": "DropFacet",
  "sourceName": "contracts/facets/DropFacet.sol",
  "abi": [
    {
      "inputs": [
        {
          "internalType": "address",
          "name": "sender",
          "type": "address"
        }
      ],
      "name": "NotContractOwner",
      "type": "error"
    },
    {
      "inputs": [
        {
          "internalType": "address",
          "name": "sender",
          "type": "address"
        }
      ],
      "name": "OnlyGovernance",
      "type": "error"
    },
    {
      "inputs": [],
      "name": "OnlyInit",
      "type": "error"
    },
    {
      "inputs": [],
      "name": "OnlyRaffleInit",
      "type": "error"
    },
    {
      "inputs": [
        {
          "internalType": "bytes32",
          "name": "merkleroot",
          "type": "bytes32"
        }
      ],
      "name": "addMerkleDrop",
      "outputs": [],
      "stateMutability": "nonpayable",
      "type": "function"
    },
    {
      "inputs": [
        {
          "internalType": "address",
          "name": "account",
          "type": "address"
        },
        {
          "internalType": "uint256",
          "name": "dropId",
          "type": "uint256"
        },
        {
          "internalType": "string",
          "name": "_tokenURI",
          "type": "string"
        },
        {
          "internalType": "string",
          "name": "data",
          "type": "string"
        },
        {
          "internalType": "bytes32[]",
          "name": "proof",
          "type": "bytes32[]"
        }
      ],
      "name": "redeem",
      "outputs": [],
      "stateMutability": "nonpayable",
      "type": "function"
    }
  ],
  "bytecode": "0x608060405234801561001057600080fd5b5061164e806100206000396000f3fe608060405234801561001057600080fd5b50600436106100365760003560e01c8063bbd01c541461003b578063cd684c7114610050575b600080fd5b61004e61004936600461123d565b610063565b005b61004e61005e3660046112f9565b6100c8565b61006b6101fb565b7f0fbfff318351b030b79f3132fb2cf562eaafa7fa1189b659768057f21f547d82805460009081527f0fbfff318351b030b79f3132fb2cf562eaafa7fa1189b659768057f21f547d83602052604090208290558054600101905550565b6101106100d687868661024c565b8684848080602002602001604051908101604052809392919081815260200183836020028082843760009201919091525061028292505050565b6101585760405162461bcd60e51b815260206004820152601460248201527324b73b30b634b21036b2b935b63290383937b7b360611b60448201526064015b60405180910390fd5b60006101626102c4565b90505b806012016000610176836013015490565b815260208101919091526040016000205460ff16156101a45761019f8160130180546001019055565b610165565b6101ba876101b3836013015490565b60016102e8565b6101ce6101c8826013015490565b85610308565b6101e26101dc826013015490565b86610409565b6101f28160130180546001019055565b50505050505050565b7fc8fcad8db84d3cc18b4c41d551ea0ee66dd599cde068d998e57d5e09332c131c600401546001600160a01b0316331461024a5760405163177a43af60e11b815233600482015260240161014f565b565b60008383836040516020016102639392919061140b565b6040516020818303038152906040528051906020012090509392505050565b60008281527f0fbfff318351b030b79f3132fb2cf562eaafa7fa1189b659768057f21f547d8360205260408120546102bc90839086610502565b949350505050565b7fc9ce3e88240d7a5adc099054a6d18f83695b024b1d6fa0406c6c90f2540b4afa90565b610303838383604051806020016040528060008152506105b1565b505050565b61031182610630565b6103705760405162461bcd60e51b815260206004820152602a60248201527f4552433732313a20646174612073746f7261676520666f72206e6f6e657869736044820152693a32b73a103a37b5b2b760b11b606482015260840161014f565b60008151116103cd5760405162461bcd60e51b815260206004820152602360248201527f4552433732313a206576656e742064617461206973206e6f74207370656369666044820152621a595960ea1b606482015260840161014f565b817fa56598db3c57d5bcfa13dca25b481f939643c1685c7a614c05f562ac5872ba59826040516103fd9190611485565b60405180910390a25050565b61041282610630565b6104755760405162461bcd60e51b815260206004820152602e60248201527f45524337323155524953746f726167653a2055524920736574206f66206e6f6e60448201526d32bc34b9ba32b73a103a37b5b2b760911b606482015260840161014f565b60008151116104d25760405162461bcd60e51b815260206004820152602360248201527f45524337323155524953746f726167653a20496e76616c696420746f6b656e2060448201526255524960e81b606482015260840161014f565b806104db6102c4565b600a01600084815260200190815260200160002090805190602001906103039291906111ad565b600081815b85518110156105a657600086828151811061052457610524611498565b60200260200101519050808311610566576040805160208101859052908101829052606001604051602081830303815290604052805190602001209250610593565b60408051602081018390529081018490526060016040516020818303038152906040528051906020012092505b508061059e816114c4565b915050610507565b509092149392505050565b81156105d95760036105c16102c4565b6000858152600e9190910160205260409020556105f7565b60026105e36102c4565b6000858152600e9190910160205260409020555b610601848461065e565b61060e60008585846108bb565b61062a5760405162461bcd60e51b815260040161014f906114df565b50505050565b60008061063b6102c4565b60009384526002016020526040909220546001600160a01b031690911415919050565b6001600160a01b0382166106b45760405162461bcd60e51b815260206004820181905260248201527f4552433732313a206d696e7420746f20746865207a65726f2061646472657373604482015260640161014f565b6106bd81610630565b1561070a5760405162461bcd60e51b815260206004820152601c60248201527f4552433732313a20746f6b656e20616c7265616479206d696e74656400000000604482015260640161014f565b6001600160e01b0381111561077b5760405162461bcd60e51b815260206004820152603160248201527f455243373231566f7465733a20746f74616c20737570706c79207269736b73206044820152706f766572666c6f77696e6720766f74657360781b606482015260840161014f565b610787600083836109c8565b60016107916102c4565b6003016000846001600160a01b03166001600160a01b0316815260200190815260200160002060008282546107c69190611531565b909155508290506107d56102c4565b6000838152600291909101602052604080822080546001600160a01b0319166001600160a01b03948516179055518392851691907fddf252ad1be2c89b69c2b068fc378daa952ba7f163c4a11628f55a4df523b3ef908290a461083a60008383610a41565b60006108446102c4565b6000838152600e9190910160205260409020549050806108626102c4565b600f016000856001600160a01b03166001600160a01b0316815260200190815260200160002060008282546108979190611531565b909155506108b490506108a86102c4565b600d01610a7683610a89565b5050505050565b60006001600160a01b0384163b156109bd57604051630a85bd0160e11b81526001600160a01b0385169063150b7a02906108ff903390899088908890600401611549565b602060405180830381600087803b15801561091957600080fd5b505af1925050508015610949575060408051601f3d908101601f1916820190925261094691810190611586565b60015b6109a3573d808015610977576040519150601f19603f3d011682016040523d82523d6000602084013e61097c565b606091505b50805161099b5760405162461bcd60e51b815260040161014f906114df565b805181602001fd5b6001600160e01b031916630a85bd0160e11b1490506102bc565b506001949350505050565b6001600160a01b0383166109e4576109df81610c02565b610a07565b816001600160a01b0316836001600160a01b031614610a0757610a078382610c4a565b6001600160a01b038216610a1e5761030381610d5c565b826001600160a01b0316826001600160a01b031614610303576103038282610e56565b610303610a4d84610eb5565b610a5684610eb5565b610a5e6102c4565b6000858152600e919091016020526040902054610ee5565b6000610a828284611531565b9392505050565b825460009081908015610ad45785610aa26001836115b0565b81548110610ab257610ab2611498565b60009182526020909120015464010000000090046001600160e01b0316610ad7565b60005b6001600160e01b03169250610af083858763ffffffff16565b9150600081118015610b2e57504386610b0a6001846115b0565b81548110610b1a57610b1a611498565b60009182526020909120015463ffffffff16145b15610b8e57610b3c8261103a565b86610b486001846115b0565b81548110610b5857610b58611498565b9060005260206000200160000160046101000a8154816001600160e01b0302191690836001600160e01b03160217905550610bf9565b856040518060400160405280610ba3436110a7565b63ffffffff168152602001610bb78561103a565b6001600160e01b0390811690915282546001810184556000938452602093849020835194909301519091166401000000000263ffffffff909316929092179101555b50935093915050565b610c0a6102c4565b60080154610c166102c4565b60008381526009919091016020526040902055610c316102c4565b6008018054600181018255600091825260209091200155565b60006001610c578461110c565b610c6191906115b0565b90506000610c6d6102c4565b600084815260079190910160205260409020549050818114610d09576000610c936102c4565b6001600160a01b038616600090815260069190910160209081526040808320868452909152902054905080610cc66102c4565b6001600160a01b03871660009081526006919091016020908152604080832086845290915290205581610cf76102c4565b60009283526007016020526040909120555b610d116102c4565b60008481526007919091016020526040812055610d2c6102c4565b6001600160a01b039094166000908152600694909401602090815260408086209386529290525082209190915550565b60006001610d686102c4565b60080154610d7691906115b0565b90506000610d826102c4565b600084815260099190910160205260408120549150610d9f6102c4565b6008018381548110610db357610db3611498565b9060005260206000200154905080610dc96102c4565b6008018381548110610ddd57610ddd611498565b60009182526020909120015581610df26102c4565b60008381526009919091016020526040902055610e0d6102c4565b60008581526009919091016020526040812055610e286102c4565b600801805480610e3a57610e3a6115c7565b6001900381819060005260206000200160009055905550505050565b6000610e618361110c565b905081610e6c6102c4565b6001600160a01b03851660009081526006919091016020908152604080832085845290915290205580610e9d6102c4565b60009384526007016020526040909220919091555050565b6000610ebf6102c4565b6001600160a01b039283166000908152600b919091016020526040902054909116919050565b816001600160a01b0316836001600160a01b031614158015610f075750600081115b15610303576001600160a01b03831615610fa157600080610f4e610f296102c4565b6001600160a01b0387166000908152600c91909101602052604090206111a185610a89565b91509150846001600160a01b03167fdec2bacdd2f05b59de34da9b523dff8be42e5e38e818c82fdb0bae774387a7248383604051610f96929190918252602082015260400190565b60405180910390a250505b6001600160a01b0382161561030357600080610fe3610fbe6102c4565b6001600160a01b0386166000908152600c9190910160205260409020610a7685610a89565b91509150836001600160a01b03167fdec2bacdd2f05b59de34da9b523dff8be42e5e38e818c82fdb0bae774387a724838360405161102b929190918252602082015260400190565b60405180910390a25050505050565b60006001600160e01b038211156110a35760405162461bcd60e51b815260206004820152602760248201527f53616665436173743a2076616c756520646f65736e27742066697420696e20326044820152663234206269747360c81b606482015260840161014f565b5090565b600063ffffffff8211156110a35760405162461bcd60e51b815260206004820152602660248201527f53616665436173743a2076616c756520646f65736e27742066697420696e203360448201526532206269747360d01b606482015260840161014f565b60006001600160a01b0382166111775760405162461bcd60e51b815260206004820152602a60248201527f4552433732313a2062616c616e636520717565727920666f7220746865207a65604482015269726f206164647265737360b01b606482015260840161014f565b61117f6102c4565b6001600160a01b03909216600090815260039290920160205250604090205490565b6000610a8282846115b0565b8280546111b9906115dd565b90600052602060002090601f0160209004810192826111db5760008555611221565b82601f106111f457805160ff1916838001178555611221565b82800160010185558215611221579182015b82811115611221578251825591602001919060010190611206565b506110a39291505b808211156110a35760008155600101611229565b60006020828403121561124f57600080fd5b5035919050565b634e487b7160e01b600052604160045260246000fd5b600082601f83011261127d57600080fd5b813567ffffffffffffffff8082111561129857611298611256565b604051601f8301601f19908116603f011681019082821181831017156112c0576112c0611256565b816040528381528660208588010111156112d957600080fd5b836020870160208301376000602085830101528094505050505092915050565b60008060008060008060a0878903121561131257600080fd5b86356001600160a01b038116811461132957600080fd5b955060208701359450604087013567ffffffffffffffff8082111561134d57600080fd5b6113598a838b0161126c565b9550606089013591508082111561136f57600080fd5b61137b8a838b0161126c565b9450608089013591508082111561139157600080fd5b818901915089601f8301126113a557600080fd5b8135818111156113b457600080fd5b8a60208260051b85010111156113c957600080fd5b6020830194508093505050509295509295509295565b60005b838110156113fa5781810151838201526020016113e2565b8381111561062a5750506000910152565b6bffffffffffffffffffffffff198460601b168152600083516114358160148501602088016113df565b83519083019061144c8160148401602088016113df565b0160140195945050505050565b600081518084526114718160208601602086016113df565b601f01601f19169290920160200192915050565b602081526000610a826020830184611459565b634e487b7160e01b600052603260045260246000fd5b634e487b7160e01b600052601160045260246000fd5b60006000198214156114d8576114d86114ae565b5060010190565b60208082526032908201527f4552433732313a207472616e7366657220746f206e6f6e20455243373231526560408201527131b2b4bb32b91034b6b83632b6b2b73a32b960711b606082015260800190565b60008219821115611544576115446114ae565b500190565b6001600160a01b038581168252841660208201526040810183905260806060820181905260009061157c90830184611459565b9695505050505050565b60006020828403121561159857600080fd5b81516001600160e01b031981168114610a8257600080fd5b6000828210156115c2576115c26114ae565b500390565b634e487b7160e01b600052603160045260246000fd5b600181811c908216806115f157607f821691505b6020821081141561161257634e487b7160e01b600052602260045260246000fd5b5091905056fea26469706673582212202787d115da4fcddddb60e4264ddc16490ace15ab9282df91069db8e670413f1764736f6c63430008090033",
  "linkReferences": {},
  "deployedLinkReferences": {}
}