{
  "_format": "hh-sol-artifact-1",
  "contractName": "ERC721Facet",
  "sourceName": "contracts/facets/ERC721Facet.sol",
  "abi": [
    {
      "inputs": [],
      "stateMutability": "nonpayable",
      "type": "constructor"
    },
    {
      "inputs": [
        {
          "internalType": "address",
          "name": "sender",
          "type": "address"
        }
      ],
      "name": "OnlyGovernance",
      "type": "error"
    },
    {
      "inputs": [],
      "name": "OnlyGovernorInit",
      "type": "error"
    },
    {
      "inputs": [],
      "name": "OnlyRaffleInit",
      "type": "error"
    },
    {
      "inputs": [],
      "name": "DOMAIN_SEPARATOR",
      "outputs": [
        {
          "internalType": "bytes32",
          "name": "",
          "type": "bytes32"
        }
      ],
      "stateMutability": "view",
      "type": "function"
    },
    {
      "inputs": [
        {
          "internalType": "address",
          "name": "to",
          "type": "address"
        },
        {
          "internalType": "uint256",
          "name": "tokenId",
          "type": "uint256"
        }
      ],
      "name": "approve",
      "outputs": [],
      "stateMutability": "nonpayable",
      "type": "function"
    },
    {
      "inputs": [
        {
          "internalType": "address",
          "name": "owner",
          "type": "address"
        }
      ],
      "name": "balanceOf",
      "outputs": [
        {
          "internalType": "uint256",
          "name": "",
          "type": "uint256"
        }
      ],
      "stateMutability": "view",
      "type": "function"
    },
    {
      "inputs": [
        {
          "internalType": "address",
          "name": "account",
          "type": "address"
        },
        {
          "internalType": "uint32",
          "name": "pos",
          "type": "uint32"
        }
      ],
      "name": "checkpoints",
      "outputs": [
        {
          "components": [
            {
              "internalType": "uint32",
              "name": "fromBlock",
              "type": "uint32"
            },
            {
              "internalType": "uint224",
              "name": "votes",
              "type": "uint224"
            }
          ],
          "internalType": "struct LibERC721.Checkpoint",
          "name": "",
          "type": "tuple"
        }
      ],
      "stateMutability": "view",
      "type": "function"
    },
    {
      "inputs": [
        {
          "internalType": "address",
          "name": "delegatee",
          "type": "address"
        }
      ],
      "name": "delegate",
      "outputs": [],
      "stateMutability": "nonpayable",
      "type": "function"
    },
    {
      "inputs": [
        {
          "internalType": "address",
          "name": "delegatee",
          "type": "address"
        },
        {
          "internalType": "uint256",
          "name": "nonce",
          "type": "uint256"
        },
        {
          "internalType": "uint256",
          "name": "expiry",
          "type": "uint256"
        },
        {
          "internalType": "uint8",
          "name": "v",
          "type": "uint8"
        },
        {
          "internalType": "bytes32",
          "name": "r",
          "type": "bytes32"
        },
        {
          "internalType": "bytes32",
          "name": "s",
          "type": "bytes32"
        }
      ],
      "name": "delegateBySig",
      "outputs": [],
      "stateMutability": "nonpayable",
      "type": "function"
    },
    {
      "inputs": [
        {
          "internalType": "address",
          "name": "account",
          "type": "address"
        }
      ],
      "name": "delegates",
      "outputs": [
        {
          "internalType": "address",
          "name": "",
          "type": "address"
        }
      ],
      "stateMutability": "view",
      "type": "function"
    },
    {
      "inputs": [
        {
          "internalType": "uint256",
          "name": "tokenId",
          "type": "uint256"
        }
      ],
      "name": "getApproved",
      "outputs": [
        {
          "internalType": "address",
          "name": "",
          "type": "address"
        }
      ],
      "stateMutability": "view",
      "type": "function"
    },
    {
      "inputs": [
        {
          "internalType": "uint256",
          "name": "blockNumber",
          "type": "uint256"
        }
      ],
      "name": "getPastTotalSupply",
      "outputs": [
        {
          "internalType": "uint256",
          "name": "",
          "type": "uint256"
        }
      ],
      "stateMutability": "view",
      "type": "function"
    },
    {
      "inputs": [
        {
          "internalType": "address",
          "name": "account",
          "type": "address"
        },
        {
          "internalType": "uint256",
          "name": "blockNumber",
          "type": "uint256"
        }
      ],
      "name": "getPastVotes",
      "outputs": [
        {
          "internalType": "uint256",
          "name": "",
          "type": "uint256"
        }
      ],
      "stateMutability": "view",
      "type": "function"
    },
    {
      "inputs": [
        {
          "internalType": "address",
          "name": "account",
          "type": "address"
        }
      ],
      "name": "getVotes",
      "outputs": [
        {
          "internalType": "uint256",
          "name": "",
          "type": "uint256"
        }
      ],
      "stateMutability": "view",
      "type": "function"
    },
    {
      "inputs": [
        {
          "internalType": "address",
          "name": "account",
          "type": "address"
        }
      ],
      "name": "getVotingWeightOf",
      "outputs": [
        {
          "internalType": "uint256",
          "name": "",
          "type": "uint256"
        }
      ],
      "stateMutability": "view",
      "type": "function"
    },
    {
      "inputs": [
        {
          "internalType": "address",
          "name": "owner",
          "type": "address"
        },
        {
          "internalType": "address",
          "name": "operator",
          "type": "address"
        }
      ],
      "name": "isApprovedForAll",
      "outputs": [
        {
          "internalType": "bool",
          "name": "",
          "type": "bool"
        }
      ],
      "stateMutability": "view",
      "type": "function"
    },
    {
      "inputs": [
        {
          "internalType": "address",
          "name": "owner",
          "type": "address"
        }
      ],
      "name": "nonces",
      "outputs": [
        {
          "internalType": "uint256",
          "name": "",
          "type": "uint256"
        }
      ],
      "stateMutability": "view",
      "type": "function"
    },
    {
      "inputs": [
        {
          "internalType": "address",
          "name": "account",
          "type": "address"
        }
      ],
      "name": "numCheckpoints",
      "outputs": [
        {
          "internalType": "uint32",
          "name": "",
          "type": "uint32"
        }
      ],
      "stateMutability": "view",
      "type": "function"
    },
    {
      "inputs": [
        {
          "internalType": "uint256",
          "name": "tokenId",
          "type": "uint256"
        }
      ],
      "name": "ownerOf",
      "outputs": [
        {
          "internalType": "address",
          "name": "",
          "type": "address"
        }
      ],
      "stateMutability": "view",
      "type": "function"
    },
    {
      "inputs": [
        {
          "internalType": "address",
          "name": "owner",
          "type": "address"
        },
        {
          "internalType": "address",
          "name": "spender",
          "type": "address"
        },
        {
          "internalType": "uint256",
          "name": "tokenId",
          "type": "uint256"
        },
        {
          "internalType": "uint256",
          "name": "deadline",
          "type": "uint256"
        },
        {
          "internalType": "uint8",
          "name": "v",
          "type": "uint8"
        },
        {
          "internalType": "bytes32",
          "name": "r",
          "type": "bytes32"
        },
        {
          "internalType": "bytes32",
          "name": "s",
          "type": "bytes32"
        }
      ],
      "name": "permit",
      "outputs": [],
      "stateMutability": "nonpayable",
      "type": "function"
    },
    {
      "inputs": [
        {
          "internalType": "address",
          "name": "to",
          "type": "address"
        },
        {
          "internalType": "bool",
          "name": "isUnique",
          "type": "bool"
        },
        {
          "internalType": "string",
          "name": "_tokenURI",
          "type": "string"
        },
        {
          "internalType": "string",
          "name": "data",
          "type": "string"
        }
      ],
      "name": "safeMint",
      "outputs": [],
      "stateMutability": "nonpayable",
      "type": "function"
    },
    {
      "inputs": [
        {
          "internalType": "address",
          "name": "from",
          "type": "address"
        },
        {
          "internalType": "address",
          "name": "to",
          "type": "address"
        },
        {
          "internalType": "uint256",
          "name": "tokenId",
          "type": "uint256"
        }
      ],
      "name": "safeTransferFrom",
      "outputs": [],
      "stateMutability": "nonpayable",
      "type": "function"
    },
    {
      "inputs": [
        {
          "internalType": "address",
          "name": "from",
          "type": "address"
        },
        {
          "internalType": "address",
          "name": "to",
          "type": "address"
        },
        {
          "internalType": "uint256",
          "name": "tokenId",
          "type": "uint256"
        },
        {
          "internalType": "bytes",
          "name": "_data",
          "type": "bytes"
        }
      ],
      "name": "safeTransferFrom",
      "outputs": [],
      "stateMutability": "nonpayable",
      "type": "function"
    },
    {
      "inputs": [
        {
          "internalType": "address",
          "name": "operator",
          "type": "address"
        },
        {
          "internalType": "bool",
          "name": "approved",
          "type": "bool"
        }
      ],
      "name": "setApprovalForAll",
      "outputs": [],
      "stateMutability": "nonpayable",
      "type": "function"
    },
    {
      "inputs": [],
      "name": "symbol",
      "outputs": [
        {
          "internalType": "string",
          "name": "",
          "type": "string"
        }
      ],
      "stateMutability": "view",
      "type": "function"
    },
    {
      "inputs": [
        {
          "internalType": "uint256",
          "name": "index",
          "type": "uint256"
        }
      ],
      "name": "tokenByIndex",
      "outputs": [
        {
          "internalType": "uint256",
          "name": "",
          "type": "uint256"
        }
      ],
      "stateMutability": "view",
      "type": "function"
    },
    {
      "inputs": [
        {
          "internalType": "address",
          "name": "owner",
          "type": "address"
        },
        {
          "internalType": "uint256",
          "name": "index",
          "type": "uint256"
        }
      ],
      "name": "tokenOfOwnerByIndex",
      "outputs": [
        {
          "internalType": "uint256",
          "name": "",
          "type": "uint256"
        }
      ],
      "stateMutability": "view",
      "type": "function"
    },
    {
      "inputs": [
        {
          "internalType": "uint256",
          "name": "tokenId",
          "type": "uint256"
        }
      ],
      "name": "tokenURI",
      "outputs": [
        {
          "internalType": "string",
          "name": "",
          "type": "string"
        }
      ],
      "stateMutability": "view",
      "type": "function"
    },
    {
      "inputs": [],
      "name": "totalSupply",
      "outputs": [
        {
          "internalType": "uint256",
          "name": "",
          "type": "uint256"
        }
      ],
      "stateMutability": "view",
      "type": "function"
    },
    {
      "inputs": [
        {
          "internalType": "address",
          "name": "from",
          "type": "address"
        },
        {
          "internalType": "address",
          "name": "to",
          "type": "address"
        },
        {
          "internalType": "uint256",
          "name": "tokenId",
          "type": "uint256"
        }
      ],
      "name": "transferFrom",
      "outputs": [],
      "stateMutability": "nonpayable",
      "type": "function"
    },
    {
      "inputs": [],
      "name": "votingTokenName",
      "outputs": [
        {
          "internalType": "string",
          "name": "",
          "type": "string"
        }
      ],
      "stateMutability": "view",
      "type": "function"
    },
    {
      "inputs": [],
      "name": "votingTokenVersion",
      "outputs": [
        {
          "internalType": "string",
          "name": "",
          "type": "string"
        }
      ],
      "stateMutability": "pure",
      "type": "function"
    }
  ],
  "bytecode": "0x6101206040523480156200001257600080fd5b5060408051808201909152600c81526b4e666665656c73576f6a616b60a01b6020820152620000556040805180820190915260018152603160f81b602082015290565b815160209283012081519183019190912060c082815260e08290524660a0818152604080517f8b73c3c69bb8fe3d512ecc4cf759cc79239f7b179b0ffacaa9a75d522b39400f81890181905281830197909752606081019590955260808086019390935230858301528051808603909201825293909201909252805190840120905261010052600090620000f2906200121462000161821b17901c565b60408051808201909152600c8082526b4e666665656c73576f6a616b60a01b60209092019182529192506200012a9183919062000185565b50604080518082019091526003808252624e465760e81b60209092019182526200015991600184019162000185565b505062000268565b7fc9ce3e88240d7a5adc099054a6d18f83695b024b1d6fa0406c6c90f2540b4afa90565b82805462000193906200022b565b90600052602060002090601f016020900481019282620001b7576000855562000202565b82601f10620001d257805160ff191683800117855562000202565b8280016001018555821562000202579182015b8281111562000202578251825591602001919060010190620001e5565b506200021092915062000214565b5090565b5b8082111562000210576000815560010162000215565b600181811c908216806200024057607f821691505b602082108114156200026257634e487b7160e01b600052602260045260246000fd5b50919050565b60805160a05160c05160e0516101005161328f620002ad600039600061166e015260006116bd015260006116980152600061161c01526000611645015261328f6000f3fe608060405234801561001057600080fd5b50600436106101cf5760003560e01c80636fcfff4511610104578063b88d4fde116100a2578063e469899e11610071578063e469899e146103d8578063e985e9c5146103eb578063ec1f26401461040e578063f1127ed81461042157600080fd5b8063b88d4fde1461038c578063c3cda5201461039f578063c87b56dd146103b2578063d505accf146103c557600080fd5b80638e539e8c116100de5780638e539e8c1461034b57806395d89b411461035e5780639ab24eb014610366578063a22cb4651461037957600080fd5b80636fcfff45146102fd57806370a08231146103255780637ecebe001461033857600080fd5b80633644e515116101715780634f6ccce71161014b5780634f6ccce7146102b1578063587cde1e146102c45780635c19a95c146102d75780636352211e146102ea57600080fd5b80633644e515146102835780633a46b1a81461028b57806342842e0e1461029e57600080fd5b80630c9b91f4116101ad5780630c9b91f41461023f57806318160ddd1461024757806323b872dd1461025d5780632f745c591461027057600080fd5b8063081812fc146101d457806308728a6a14610204578063095ea7b31461022a575b600080fd5b6101e76101e2366004612b66565b61045e565b6040516001600160a01b0390911681526020015b60405180910390f35b6040805180820190915260018152603160f81b60208201525b6040516101fb9190612bd7565b61023d610238366004612c06565b6104f4565b005b61021d61060a565b61024f6106a2565b6040519081526020016101fb565b61023d61026b366004612c30565b6106b5565b61024f61027e366004612c06565b6106e6565b61024f610788565b61024f610299366004612c06565b610797565b61023d6102ac366004612c30565b6107aa565b61024f6102bf366004612b66565b6107c5565b6101e76102d2366004612c6c565b610860565b61023d6102e5366004612c6c565b610890565b6101e76102f8366004612b66565b61089d565b61031061030b366004612c6c565b6108ae565b60405163ffffffff90911681526020016101fb565b61024f610333366004612c6c565b6108dd565b61024f610346366004612c6c565b610972565b61024f610359366004612b66565b61099f565b61021d6109aa565b61024f610374366004612c6c565b6109c2565b61023d610387366004612c97565b610a66565b61023d61039a366004612d56565b610b3c565b61023d6103ad366004612de3565b610b74565b61021d6103c0366004612b66565b610cab565b61023d6103d3366004612e3b565b610e5e565b61023d6103e6366004612ea5565b610fc1565b6103fe6103f9366004612f72565b6110a7565b60405190151581526020016101fb565b61024f61041c366004612c6c565b6110e4565b61043461042f366004612f9c565b611184565b60408051825163ffffffff1681526020928301516001600160e01b031692810192909252016101fb565b600061046982611238565b6104cf5760405162461bcd60e51b815260206004820152602c60248201527f4552433732313a20617070726f76656420717565727920666f72206e6f6e657860448201526b34b9ba32b73a103a37b5b2b760a11b60648201526084015b60405180910390fd5b6104d7611214565b60009283526004016020525060409020546001600160a01b031690565b60006104ff82611266565b9050806001600160a01b0316836001600160a01b0316141561056d5760405162461bcd60e51b815260206004820152602160248201527f4552433732313a20617070726f76616c20746f2063757272656e74206f776e656044820152603960f91b60648201526084016104c6565b336001600160a01b0382161480610589575061058981336110a7565b6105fb5760405162461bcd60e51b815260206004820152603860248201527f4552433732313a20617070726f76652063616c6c6572206973206e6f74206f7760448201527f6e6572206e6f7220617070726f76656420666f7220616c6c000000000000000060648201526084016104c6565b61060583836112ee565b505050565b6060610614611214565b805461061f90612fdc565b80601f016020809104026020016040519081016040528092919081815260200182805461064b90612fdc565b80156106985780601f1061066d57610100808354040283529160200191610698565b820191906000526020600020905b81548152906001019060200180831161067b57829003601f168201915b5050505050905090565b60006106ac611214565b60080154919050565b6106bf3382611369565b6106db5760405162461bcd60e51b81526004016104c690613011565b61060583838361142b565b60006106f1836108dd565b82106107535760405162461bcd60e51b815260206004820152602b60248201527f455243373231456e756d657261626c653a206f776e657220696e646578206f7560448201526a74206f6620626f756e647360a81b60648201526084016104c6565b61075b611214565b6001600160a01b039390931660009081526006909301602090815260408085209385529290525090205490565b6000610792611618565b905090565b60006107a3838361170b565b9392505050565b61060583838360405180602001604052806000815250610b3c565b60006107cf6106a2565b82106108325760405162461bcd60e51b815260206004820152602c60248201527f455243373231456e756d657261626c653a20676c6f62616c20696e646578206f60448201526b7574206f6620626f756e647360a01b60648201526084016104c6565b61083a611214565b600801828154811061084e5761084e613062565b90600052602060002001549050919050565b600061086a611214565b6001600160a01b039283166000908152600b919091016020526040902054909116919050565b61089a3382611789565b50565b60006108a882611266565b92915050565b60006108a86108bb611214565b6001600160a01b0384166000908152600c919091016020526040902054611818565b60006001600160a01b0382166109485760405162461bcd60e51b815260206004820152602a60248201527f4552433732313a2062616c616e636520717565727920666f7220746865207a65604482015269726f206164647265737360b01b60648201526084016104c6565b610950611214565b6001600160a01b03909216600090815260039290920160205250604090205490565b60006108a861097f611214565b6001600160a01b0384166000908152601091909101602052604090205490565b60006108a882611881565b60606109b4611214565b600101805461061f90612fdc565b6000806109cd611214565b6001600160a01b0384166000908152600c91909101602052604090205490508015610a53576109fa611214565b6001600160a01b0384166000908152600c9190910160205260409020610a2160018361308e565b81548110610a3157610a31613062565b60009182526020909120015464010000000090046001600160e01b0316610a56565b60005b6001600160e01b03169392505050565b6001600160a01b038216331415610abf5760405162461bcd60e51b815260206004820152601960248201527f4552433732313a20617070726f766520746f2063616c6c65720000000000000060448201526064016104c6565b80610ac8611214565b336000818152600592909201602090815260408084206001600160a01b03881680865290835293819020805460ff19169515159590951790945592518415158152919290917f17307eab39ab6107e8899845ad3d59bd9653f200f220920489ca2b5937696c31910160405180910390a35050565b610b463383611369565b610b625760405162461bcd60e51b81526004016104c690613011565b610b6e848484846118e6565b50505050565b83421115610bc45760405162461bcd60e51b815260206004820152601e60248201527f455243373231566f7465733a207369676e61747572652065787069726564000060448201526064016104c6565b604080517fe48329057bfd03d55e49b547132e39cffd9c1820ad7b9d4c5307691425d15adf60208201526001600160a01b038816918101919091526060810186905260808101859052600090610c3e90610c369060a00160405160208183030381529060405280519060200120611919565b858585611967565b9050610c498161198f565b8614610c975760405162461bcd60e51b815260206004820152601a60248201527f455243373231566f7465733a20696e76616c6964206e6f6e636500000000000060448201526064016104c6565b610ca18188611789565b505b505050505050565b6060610cb682611238565b610d1a5760405162461bcd60e51b815260206004820152602f60248201527f4552433732314d657461646174613a2055524920717565727920666f72206e6f60448201526e3732bc34b9ba32b73a103a37b5b2b760891b60648201526084016104c6565b6000610d24611214565b6000848152600a91909101602052604090208054610d4190612fdc565b80601f0160208091040260200160405190810160405280929190818152602001828054610d6d90612fdc565b8015610dba5780601f10610d8f57610100808354040283529160200191610dba565b820191906000526020600020905b815481529060010190602001808311610d9d57829003601f168201915b505050505090506000610dd860408051602081019091526000815290565b9050805160001415610deb575092915050565b815115610e1d578082604051602001610e059291906130a5565b60405160208183030381529060405292505050919050565b6000815111610e3b5760405180602001604052806000815250610e56565b80610e45856119d0565b604051602001610e059291906130a5565b949350505050565b83421115610eae5760405162461bcd60e51b815260206004820152601e60248201527f4552433732315065726d69743a206578706972656420646561646c696e65000060448201526064016104c6565b60007f6e71edae12b1b97f4d1f60370fef10105fa2faae0126114a169c64845d6126c9888888610edd8c61198f565b6040805160208101969096526001600160a01b0394851690860152929091166060840152608083015260a082015260c0810186905260e0016040516020818303038152906040528051906020012090506000610f3882611919565b90506000610f4882878787611967565b9050896001600160a01b0316816001600160a01b031614610fab5760405162461bcd60e51b815260206004820152601f60248201527f4552433732315065726d69743a20696e76616c6964207369676e61747572650060448201526064016104c6565b610fb589896112ee565b50505050505050505050565b7fc2a8298caf52168bfd940aaa692106d17150cb73b7cadfb02ecda97d63bd92ea546001600160a01b0316331461100d5760405163ab1e998f60e01b81523360048201526024016104c6565b6000611017611214565b90505b80601201600061102b836013015490565b815260208101919091526040016000205460ff1615611059576110548160130180546001019055565b61101a565b61106d611067826013015490565b85611ace565b61108261107b826013015490565b8484611bc7565b61109786611091836013015490565b87611cc7565b610ca38160130180546001019055565b60006110b1611214565b6001600160a01b039384166000908152600591909101602090815260408083209490951682529290925250205460ff1690565b60006001600160a01b03821661115a5760405162461bcd60e51b815260206004820152603560248201527f455243373231566f7465733a20766f74696e672077656967687420717565727960448201527420666f7220746865207a65726f206164647265737360581b60648201526084016104c6565b611162611214565b6001600160a01b039092166000908152600f9290920160205250604090205490565b60408051808201909152600080825260208201526111a0611214565b6001600160a01b0384166000908152600c9190910160205260409020805463ffffffff84169081106111d4576111d4613062565b60009182526020918290206040805180820190915291015463ffffffff8116825264010000000090046001600160e01b0316918101919091529392505050565b7fc9ce3e88240d7a5adc099054a6d18f83695b024b1d6fa0406c6c90f2540b4afa90565b600080611243611214565b60009384526002016020526040909220546001600160a01b031690911415919050565b600080611271611214565b600084815260029190910160205260409020546001600160a01b03169050806108a85760405162461bcd60e51b815260206004820152602960248201527f4552433732313a206f776e657220717565727920666f72206e6f6e657869737460448201526832b73a103a37b5b2b760b91b60648201526084016104c6565b816112f7611214565b60008381526004919091016020526040902080546001600160a01b0319166001600160a01b039283161790558190831661133082611266565b6001600160a01b03167f8c5be1e5ebec7d5bd14f71427d1e84f3dd0314c0f7b2291e5b200ac8c7c3b92560405160405180910390a45050565b600061137482611238565b6113d55760405162461bcd60e51b815260206004820152602c60248201527f4552433732313a206f70657261746f7220717565727920666f72206e6f6e657860448201526b34b9ba32b73a103a37b5b2b760a11b60648201526084016104c6565b60006113e083611266565b9050806001600160a01b0316846001600160a01b0316148061141b5750836001600160a01b03166114108461045e565b6001600160a01b0316145b80610e565750610e5681856110a7565b826001600160a01b031661143e82611266565b6001600160a01b0316146114a65760405162461bcd60e51b815260206004820152602960248201527f4552433732313a207472616e73666572206f6620746f6b656e2074686174206960448201526839903737ba1037bbb760b91b60648201526084016104c6565b6001600160a01b0382166115085760405162461bcd60e51b8152602060048201526024808201527f4552433732313a207472616e7366657220746f20746865207a65726f206164646044820152637265737360e01b60648201526084016104c6565b611513838383611ce2565b61151e6000826112ee565b6001611528611214565b6003016000856001600160a01b03166001600160a01b03168152602001908152602001600020600082825461155d919061308e565b909155506001905061156d611214565b6003016000846001600160a01b03166001600160a01b0316815260200190815260200160002060008282546115a291906130d4565b909155508290506115b1611214565b6000838152600291909101602052604080822080546001600160a01b0319166001600160a01b0394851617905551839285811692908716917fddf252ad1be2c89b69c2b068fc378daa952ba7f163c4a11628f55a4df523b3ef9190a4610605838383611d5b565b60007f000000000000000000000000000000000000000000000000000000000000000046141561166757507f000000000000000000000000000000000000000000000000000000000000000090565b50604080517f00000000000000000000000000000000000000000000000000000000000000006020808301919091527f0000000000000000000000000000000000000000000000000000000000000000828401527f000000000000000000000000000000000000000000000000000000000000000060608301524660808301523060a0808401919091528351808403909101815260c0909201909252805191012090565b600043821061175c5760405162461bcd60e51b815260206004820181905260248201527f455243373231566f7465733a20626c6f636b206e6f7420796574206d696e656460448201526064016104c6565b6107a3611767611214565b6001600160a01b0385166000908152600c919091016020526040902083611d90565b600061179483610860565b905060006117a1846110e4565b9050826117ac611214565b6001600160a01b038681166000818152600b93909301602052604080842080546001600160a01b03191695841695909517909455925186821693918616927f3134e8a2e6d97e929a7e54011ea5485d7d196dd5f0ba4d4ef95803e8e3fc257f91a4610b6e828483611e4d565b600063ffffffff82111561187d5760405162461bcd60e51b815260206004820152602660248201527f53616665436173743a2076616c756520646f65736e27742066697420696e203360448201526532206269747360d01b60648201526084016104c6565b5090565b60004382106118d25760405162461bcd60e51b815260206004820181905260248201527f455243373231566f7465733a20626c6f636b206e6f7420796574206d696e656460448201526064016104c6565b6108a86118dd611214565b600d0183611d90565b6118f184848461142b565b6118fd84848484611fa2565b610b6e5760405162461bcd60e51b81526004016104c6906130ec565b60006108a8611926611618565b8360405161190160f01b6020820152602281018390526042810182905260009060620160405160208183030381529060405280519060200120905092915050565b6000806000611978878787876120ac565b9150915061198581612199565b5095945050505050565b60008061199a611214565b6001600160a01b03841660009081526010919091016020526040902090506119c0815490565b8154600101825591505b50919050565b6060816119f45750506040805180820190915260018152600360fc1b602082015290565b8160005b8115611a1e5780611a088161313e565b9150611a179050600a8361316f565b91506119f8565b60008167ffffffffffffffff811115611a3957611a39612cca565b6040519080825280601f01601f191660200182016040528015611a63576020820181803683370190505b5090505b8415610e5657611a7860018361308e565b9150611a85600a86613183565b611a909060306130d4565b60f81b818381518110611aa557611aa5613062565b60200101906001600160f81b031916908160001a905350611ac7600a8661316f565b9450611a67565b611ad782611238565b611b3a5760405162461bcd60e51b815260206004820152602e60248201527f45524337323155524953746f726167653a2055524920736574206f66206e6f6e60448201526d32bc34b9ba32b73a103a37b5b2b760911b60648201526084016104c6565b6000815111611b975760405162461bcd60e51b815260206004820152602360248201527f45524337323155524953746f726167653a20496e76616c696420746f6b656e2060448201526255524960e81b60648201526084016104c6565b80611ba0611214565b600a0160008481526020019081526020016000209080519060200190610605929190612ad6565b611bd083611238565b611c2f5760405162461bcd60e51b815260206004820152602a60248201527f4552433732313a20646174612073746f7261676520666f72206e6f6e657869736044820152693a32b73a103a37b5b2b760b11b60648201526084016104c6565b80611c885760405162461bcd60e51b815260206004820152602360248201527f4552433732313a206576656e742064617461206973206e6f74207370656369666044820152621a595960ea1b60648201526084016104c6565b827fa56598db3c57d5bcfa13dca25b481f939643c1685c7a614c05f562ac5872ba598383604051611cba929190613197565b60405180910390a2505050565b61060583838360405180602001604052806000815250612354565b6001600160a01b038316611cfe57611cf9816123b1565b611d21565b816001600160a01b0316836001600160a01b031614611d2157611d2183826123f9565b6001600160a01b038216611d38576106058161250b565b826001600160a01b0316826001600160a01b031614610605576106058282612605565b610605611d6784610860565b611d7084610860565b611d78611214565b6000858152600e919091016020526040902054611e4d565b8154600090815b81811015611df4576000611dab8284612664565b905084868281548110611dc057611dc0613062565b60009182526020909120015463ffffffff161115611de057809250611dee565b611deb8160016130d4565b91505b50611d97565b8115611e385784611e0660018461308e565b81548110611e1657611e16613062565b60009182526020909120015464010000000090046001600160e01b0316611e3b565b60005b6001600160e01b031695945050505050565b816001600160a01b0316836001600160a01b031614158015611e6f5750600081115b15610605576001600160a01b03831615611f0957600080611eb6611e91611214565b6001600160a01b0387166000908152600c919091016020526040902061267f8561268b565b91509150846001600160a01b03167fdec2bacdd2f05b59de34da9b523dff8be42e5e38e818c82fdb0bae774387a7248383604051611efe929190918252602082015260400190565b60405180910390a250505b6001600160a01b0382161561060557600080611f4b611f26611214565b6001600160a01b0386166000908152600c91909101602052604090206128048561268b565b91509150836001600160a01b03167fdec2bacdd2f05b59de34da9b523dff8be42e5e38e818c82fdb0bae774387a7248383604051611f93929190918252602082015260400190565b60405180910390a25050505050565b60006001600160a01b0384163b156120a457604051630a85bd0160e11b81526001600160a01b0385169063150b7a0290611fe69033908990889088906004016131c6565b602060405180830381600087803b15801561200057600080fd5b505af1925050508015612030575060408051601f3d908101601f1916820190925261202d91810190613203565b60015b61208a573d80801561205e576040519150601f19603f3d011682016040523d82523d6000602084013e612063565b606091505b5080516120825760405162461bcd60e51b81526004016104c6906130ec565b805181602001fd5b6001600160e01b031916630a85bd0160e11b149050610e56565b506001610e56565b6000807f7fffffffffffffffffffffffffffffff5d576e7357a4501ddfe92f46681b20a08311156120e35750600090506003612190565b8460ff16601b141580156120fb57508460ff16601c14155b1561210c5750600090506004612190565b6040805160008082526020820180845289905260ff881692820192909252606081018690526080810185905260019060a0016020604051602081039080840390855afa158015612160573d6000803e3d6000fd5b5050604051601f1901519150506001600160a01b03811661218957600060019250925050612190565b9150600090505b94509492505050565b60008160048111156121ad576121ad61322d565b14156121b65750565b60018160048111156121ca576121ca61322d565b14156122185760405162461bcd60e51b815260206004820152601860248201527f45434453413a20696e76616c6964207369676e6174757265000000000000000060448201526064016104c6565b600281600481111561222c5761222c61322d565b141561227a5760405162461bcd60e51b815260206004820152601f60248201527f45434453413a20696e76616c6964207369676e6174757265206c656e6774680060448201526064016104c6565b600381600481111561228e5761228e61322d565b14156122e75760405162461bcd60e51b815260206004820152602260248201527f45434453413a20696e76616c6964207369676e6174757265202773272076616c604482015261756560f01b60648201526084016104c6565b60048160048111156122fb576122fb61322d565b141561089a5760405162461bcd60e51b815260206004820152602260248201527f45434453413a20696e76616c6964207369676e6174757265202776272076616c604482015261756560f01b60648201526084016104c6565b811561237c576003612364611214565b6000858152600e91909101602052604090205561239a565b6002612386611214565b6000858152600e9190910160205260409020555b6123a48484612810565b6118fd6000858584611fa2565b6123b9611214565b600801546123c5611214565b600083815260099190910160205260409020556123e0611214565b6008018054600181018255600091825260209091200155565b60006001612406846108dd565b612410919061308e565b9050600061241c611214565b6000848152600791909101602052604090205490508181146124b8576000612442611214565b6001600160a01b038616600090815260069190910160209081526040808320868452909152902054905080612475611214565b6001600160a01b038716600090815260069190910160209081526040808320868452909152902055816124a6611214565b60009283526007016020526040909120555b6124c0611214565b600084815260079190910160205260408120556124db611214565b6001600160a01b039094166000908152600694909401602090815260408086209386529290525082209190915550565b60006001612517611214565b60080154612525919061308e565b90506000612531611214565b60008481526009919091016020526040812054915061254e611214565b600801838154811061256257612562613062565b9060005260206000200154905080612578611214565b600801838154811061258c5761258c613062565b600091825260209091200155816125a1611214565b600083815260099190910160205260409020556125bc611214565b600085815260099190910160205260408120556125d7611214565b6008018054806125e9576125e9613243565b6001900381819060005260206000200160009055905550505050565b6000612610836108dd565b90508161261b611214565b6001600160a01b0385166000908152600691909101602090815260408083208584529091529020558061264c611214565b60009384526007016020526040909220919091555050565b6000612673600284841861316f565b6107a3908484166130d4565b60006107a3828461308e565b8254600090819080156126d657856126a460018361308e565b815481106126b4576126b4613062565b60009182526020909120015464010000000090046001600160e01b03166126d9565b60005b6001600160e01b031692506126f283858763ffffffff16565b91506000811180156127305750438661270c60018461308e565b8154811061271c5761271c613062565b60009182526020909120015463ffffffff16145b156127905761273e82612a6d565b8661274a60018461308e565b8154811061275a5761275a613062565b9060005260206000200160000160046101000a8154816001600160e01b0302191690836001600160e01b031602179055506127fb565b8560405180604001604052806127a543611818565b63ffffffff1681526020016127b985612a6d565b6001600160e01b0390811690915282546001810184556000938452602093849020835194909301519091166401000000000263ffffffff909316929092179101555b50935093915050565b60006107a382846130d4565b6001600160a01b0382166128665760405162461bcd60e51b815260206004820181905260248201527f4552433732313a206d696e7420746f20746865207a65726f206164647265737360448201526064016104c6565b61286f81611238565b156128bc5760405162461bcd60e51b815260206004820152601c60248201527f4552433732313a20746f6b656e20616c7265616479206d696e7465640000000060448201526064016104c6565b6001600160e01b0381111561292d5760405162461bcd60e51b815260206004820152603160248201527f455243373231566f7465733a20746f74616c20737570706c79207269736b73206044820152706f766572666c6f77696e6720766f74657360781b60648201526084016104c6565b61293960008383611ce2565b6001612943611214565b6003016000846001600160a01b03166001600160a01b03168152602001908152602001600020600082825461297891906130d4565b90915550829050612987611214565b6000838152600291909101602052604080822080546001600160a01b0319166001600160a01b03948516179055518392851691907fddf252ad1be2c89b69c2b068fc378daa952ba7f163c4a11628f55a4df523b3ef908290a46129ec60008383611d5b565b60006129f6611214565b6000838152600e919091016020526040902054905080612a14611214565b600f016000856001600160a01b03166001600160a01b031681526020019081526020016000206000828254612a4991906130d4565b90915550612a669050612a5a611214565b600d016128048361268b565b5050505050565b60006001600160e01b0382111561187d5760405162461bcd60e51b815260206004820152602760248201527f53616665436173743a2076616c756520646f65736e27742066697420696e20326044820152663234206269747360c81b60648201526084016104c6565b828054612ae290612fdc565b90600052602060002090601f016020900481019282612b045760008555612b4a565b82601f10612b1d57805160ff1916838001178555612b4a565b82800160010185558215612b4a579182015b82811115612b4a578251825591602001919060010190612b2f565b5061187d9291505b8082111561187d5760008155600101612b52565b600060208284031215612b7857600080fd5b5035919050565b60005b83811015612b9a578181015183820152602001612b82565b83811115610b6e5750506000910152565b60008151808452612bc3816020860160208601612b7f565b601f01601f19169290920160200192915050565b6020815260006107a36020830184612bab565b80356001600160a01b0381168114612c0157600080fd5b919050565b60008060408385031215612c1957600080fd5b612c2283612bea565b946020939093013593505050565b600080600060608486031215612c4557600080fd5b612c4e84612bea565b9250612c5c60208501612bea565b9150604084013590509250925092565b600060208284031215612c7e57600080fd5b6107a382612bea565b80358015158114612c0157600080fd5b60008060408385031215612caa57600080fd5b612cb383612bea565b9150612cc160208401612c87565b90509250929050565b634e487b7160e01b600052604160045260246000fd5b600067ffffffffffffffff80841115612cfb57612cfb612cca565b604051601f8501601f19908116603f01168101908282118183101715612d2357612d23612cca565b81604052809350858152868686011115612d3c57600080fd5b858560208301376000602087830101525050509392505050565b60008060008060808587031215612d6c57600080fd5b612d7585612bea565b9350612d8360208601612bea565b925060408501359150606085013567ffffffffffffffff811115612da657600080fd5b8501601f81018713612db757600080fd5b612dc687823560208401612ce0565b91505092959194509250565b803560ff81168114612c0157600080fd5b60008060008060008060c08789031215612dfc57600080fd5b612e0587612bea565b95506020870135945060408701359350612e2160608801612dd2565b92506080870135915060a087013590509295509295509295565b600080600080600080600060e0888a031215612e5657600080fd5b612e5f88612bea565b9650612e6d60208901612bea565b95506040880135945060608801359350612e8960808901612dd2565b925060a0880135915060c0880135905092959891949750929550565b600080600080600060808688031215612ebd57600080fd5b612ec686612bea565b9450612ed460208701612c87565b9350604086013567ffffffffffffffff80821115612ef157600080fd5b818801915088601f830112612f0557600080fd5b612f1489833560208501612ce0565b94506060880135915080821115612f2a57600080fd5b818801915088601f830112612f3e57600080fd5b813581811115612f4d57600080fd5b896020828501011115612f5f57600080fd5b9699959850939650602001949392505050565b60008060408385031215612f8557600080fd5b612f8e83612bea565b9150612cc160208401612bea565b60008060408385031215612faf57600080fd5b612fb883612bea565b9150602083013563ffffffff81168114612fd157600080fd5b809150509250929050565b600181811c90821680612ff057607f821691505b602082108114156119ca57634e487b7160e01b600052602260045260246000fd5b60208082526031908201527f4552433732313a207472616e736665722063616c6c6572206973206e6f74206f6040820152701ddb995c881b9bdc88185c1c1c9bdd9959607a1b606082015260800190565b634e487b7160e01b600052603260045260246000fd5b634e487b7160e01b600052601160045260246000fd5b6000828210156130a0576130a0613078565b500390565b600083516130b7818460208801612b7f565b8351908301906130cb818360208801612b7f565b01949350505050565b600082198211156130e7576130e7613078565b500190565b60208082526032908201527f4552433732313a207472616e7366657220746f206e6f6e20455243373231526560408201527131b2b4bb32b91034b6b83632b6b2b73a32b960711b606082015260800190565b600060001982141561315257613152613078565b5060010190565b634e487b7160e01b600052601260045260246000fd5b60008261317e5761317e613159565b500490565b60008261319257613192613159565b500690565b60208152816020820152818360408301376000818301604090810191909152601f909201601f19160101919050565b6001600160a01b03858116825284166020820152604081018390526080606082018190526000906131f990830184612bab565b9695505050505050565b60006020828403121561321557600080fd5b81516001600160e01b0319811681146107a357600080fd5b634e487b7160e01b600052602160045260246000fd5b634e487b7160e01b600052603160045260246000fdfea2646970667358221220292d346ce85af7775e7e2bb9a591df2c324e50fdfa0b9c01eaa6ba3b32b99f6a64736f6c63430008090033",
  "linkReferences": {},
  "deployedLinkReferences": {}
}