{
  "_format": "hh-sol-artifact-1",
  "contractName": "ERC721Facet",
  "sourceName": "contracts/facets/ERC721Facet.sol",
  "abi": [
    {
      "inputs": [],
      "stateMutability": "nonpayable",
      "type": "constructor"
    },
    {
      "inputs": [
        {
          "internalType": "address",
          "name": "sender",
          "type": "address"
        }
      ],
      "name": "OnlyGovernance",
      "type": "error"
    },
    {
      "inputs": [],
      "name": "OnlyInit",
      "type": "error"
    },
    {
      "inputs": [],
      "name": "OnlyRaffleInit",
      "type": "error"
    },
    {
      "inputs": [],
      "name": "DOMAIN_SEPARATOR",
      "outputs": [
        {
          "internalType": "bytes32",
          "name": "",
          "type": "bytes32"
        }
      ],
      "stateMutability": "view",
      "type": "function"
    },
    {
      "inputs": [
        {
          "internalType": "address",
          "name": "to",
          "type": "address"
        },
        {
          "internalType": "uint256",
          "name": "tokenId",
          "type": "uint256"
        }
      ],
      "name": "approve",
      "outputs": [],
      "stateMutability": "nonpayable",
      "type": "function"
    },
    {
      "inputs": [
        {
          "internalType": "address",
          "name": "owner",
          "type": "address"
        }
      ],
      "name": "balanceOf",
      "outputs": [
        {
          "internalType": "uint256",
          "name": "",
          "type": "uint256"
        }
      ],
      "stateMutability": "view",
      "type": "function"
    },
    {
      "inputs": [
        {
          "internalType": "address",
          "name": "account",
          "type": "address"
        },
        {
          "internalType": "uint32",
          "name": "pos",
          "type": "uint32"
        }
      ],
      "name": "checkpoints",
      "outputs": [
        {
          "components": [
            {
              "internalType": "uint32",
              "name": "fromBlock",
              "type": "uint32"
            },
            {
              "internalType": "uint224",
              "name": "votes",
              "type": "uint224"
            }
          ],
          "internalType": "struct LibERC721.Checkpoint",
          "name": "",
          "type": "tuple"
        }
      ],
      "stateMutability": "view",
      "type": "function"
    },
    {
      "inputs": [
        {
          "internalType": "address",
          "name": "delegatee",
          "type": "address"
        }
      ],
      "name": "delegate",
      "outputs": [],
      "stateMutability": "nonpayable",
      "type": "function"
    },
    {
      "inputs": [
        {
          "internalType": "address",
          "name": "delegatee",
          "type": "address"
        },
        {
          "internalType": "uint256",
          "name": "nonce",
          "type": "uint256"
        },
        {
          "internalType": "uint256",
          "name": "expiry",
          "type": "uint256"
        },
        {
          "internalType": "uint8",
          "name": "v",
          "type": "uint8"
        },
        {
          "internalType": "bytes32",
          "name": "r",
          "type": "bytes32"
        },
        {
          "internalType": "bytes32",
          "name": "s",
          "type": "bytes32"
        }
      ],
      "name": "delegateBySig",
      "outputs": [],
      "stateMutability": "nonpayable",
      "type": "function"
    },
    {
      "inputs": [
        {
          "internalType": "address",
          "name": "account",
          "type": "address"
        }
      ],
      "name": "delegates",
      "outputs": [
        {
          "internalType": "address",
          "name": "",
          "type": "address"
        }
      ],
      "stateMutability": "view",
      "type": "function"
    },
    {
      "inputs": [
        {
          "internalType": "uint256",
          "name": "tokenId",
          "type": "uint256"
        }
      ],
      "name": "getApproved",
      "outputs": [
        {
          "internalType": "address",
          "name": "",
          "type": "address"
        }
      ],
      "stateMutability": "view",
      "type": "function"
    },
    {
      "inputs": [
        {
          "internalType": "uint256",
          "name": "blockNumber",
          "type": "uint256"
        }
      ],
      "name": "getPastTotalSupply",
      "outputs": [
        {
          "internalType": "uint256",
          "name": "",
          "type": "uint256"
        }
      ],
      "stateMutability": "view",
      "type": "function"
    },
    {
      "inputs": [
        {
          "internalType": "address",
          "name": "account",
          "type": "address"
        },
        {
          "internalType": "uint256",
          "name": "blockNumber",
          "type": "uint256"
        }
      ],
      "name": "getPastVotes",
      "outputs": [
        {
          "internalType": "uint256",
          "name": "",
          "type": "uint256"
        }
      ],
      "stateMutability": "view",
      "type": "function"
    },
    {
      "inputs": [
        {
          "internalType": "address",
          "name": "account",
          "type": "address"
        }
      ],
      "name": "getVotes",
      "outputs": [
        {
          "internalType": "uint256",
          "name": "",
          "type": "uint256"
        }
      ],
      "stateMutability": "view",
      "type": "function"
    },
    {
      "inputs": [
        {
          "internalType": "address",
          "name": "account",
          "type": "address"
        }
      ],
      "name": "getVotingWeightOf",
      "outputs": [
        {
          "internalType": "uint256",
          "name": "",
          "type": "uint256"
        }
      ],
      "stateMutability": "view",
      "type": "function"
    },
    {
      "inputs": [
        {
          "internalType": "address",
          "name": "owner",
          "type": "address"
        },
        {
          "internalType": "address",
          "name": "operator",
          "type": "address"
        }
      ],
      "name": "isApprovedForAll",
      "outputs": [
        {
          "internalType": "bool",
          "name": "",
          "type": "bool"
        }
      ],
      "stateMutability": "view",
      "type": "function"
    },
    {
      "inputs": [
        {
          "internalType": "address",
          "name": "owner",
          "type": "address"
        }
      ],
      "name": "nonces",
      "outputs": [
        {
          "internalType": "uint256",
          "name": "",
          "type": "uint256"
        }
      ],
      "stateMutability": "view",
      "type": "function"
    },
    {
      "inputs": [
        {
          "internalType": "address",
          "name": "account",
          "type": "address"
        }
      ],
      "name": "numCheckpoints",
      "outputs": [
        {
          "internalType": "uint32",
          "name": "",
          "type": "uint32"
        }
      ],
      "stateMutability": "view",
      "type": "function"
    },
    {
      "inputs": [
        {
          "internalType": "uint256",
          "name": "tokenId",
          "type": "uint256"
        }
      ],
      "name": "ownerOf",
      "outputs": [
        {
          "internalType": "address",
          "name": "",
          "type": "address"
        }
      ],
      "stateMutability": "view",
      "type": "function"
    },
    {
      "inputs": [
        {
          "internalType": "address",
          "name": "owner",
          "type": "address"
        },
        {
          "internalType": "address",
          "name": "spender",
          "type": "address"
        },
        {
          "internalType": "uint256",
          "name": "tokenId",
          "type": "uint256"
        },
        {
          "internalType": "uint256",
          "name": "deadline",
          "type": "uint256"
        },
        {
          "internalType": "uint8",
          "name": "v",
          "type": "uint8"
        },
        {
          "internalType": "bytes32",
          "name": "r",
          "type": "bytes32"
        },
        {
          "internalType": "bytes32",
          "name": "s",
          "type": "bytes32"
        }
      ],
      "name": "permit",
      "outputs": [],
      "stateMutability": "nonpayable",
      "type": "function"
    },
    {
      "inputs": [
        {
          "internalType": "address",
          "name": "to",
          "type": "address"
        },
        {
          "internalType": "bool",
          "name": "isUnique",
          "type": "bool"
        },
        {
          "internalType": "string",
          "name": "_tokenURI",
          "type": "string"
        },
        {
          "internalType": "string",
          "name": "data",
          "type": "string"
        }
      ],
      "name": "safeMint",
      "outputs": [],
      "stateMutability": "nonpayable",
      "type": "function"
    },
    {
      "inputs": [
        {
          "internalType": "address",
          "name": "from",
          "type": "address"
        },
        {
          "internalType": "address",
          "name": "to",
          "type": "address"
        },
        {
          "internalType": "uint256",
          "name": "tokenId",
          "type": "uint256"
        }
      ],
      "name": "safeTransferFrom",
      "outputs": [],
      "stateMutability": "nonpayable",
      "type": "function"
    },
    {
      "inputs": [
        {
          "internalType": "address",
          "name": "from",
          "type": "address"
        },
        {
          "internalType": "address",
          "name": "to",
          "type": "address"
        },
        {
          "internalType": "uint256",
          "name": "tokenId",
          "type": "uint256"
        },
        {
          "internalType": "bytes",
          "name": "_data",
          "type": "bytes"
        }
      ],
      "name": "safeTransferFrom",
      "outputs": [],
      "stateMutability": "nonpayable",
      "type": "function"
    },
    {
      "inputs": [
        {
          "internalType": "address",
          "name": "operator",
          "type": "address"
        },
        {
          "internalType": "bool",
          "name": "approved",
          "type": "bool"
        }
      ],
      "name": "setApprovalForAll",
      "outputs": [],
      "stateMutability": "nonpayable",
      "type": "function"
    },
    {
      "inputs": [],
      "name": "symbol",
      "outputs": [
        {
          "internalType": "string",
          "name": "",
          "type": "string"
        }
      ],
      "stateMutability": "view",
      "type": "function"
    },
    {
      "inputs": [
        {
          "internalType": "uint256",
          "name": "index",
          "type": "uint256"
        }
      ],
      "name": "tokenByIndex",
      "outputs": [
        {
          "internalType": "uint256",
          "name": "",
          "type": "uint256"
        }
      ],
      "stateMutability": "view",
      "type": "function"
    },
    {
      "inputs": [
        {
          "internalType": "address",
          "name": "owner",
          "type": "address"
        },
        {
          "internalType": "uint256",
          "name": "index",
          "type": "uint256"
        }
      ],
      "name": "tokenOfOwnerByIndex",
      "outputs": [
        {
          "internalType": "uint256",
          "name": "",
          "type": "uint256"
        }
      ],
      "stateMutability": "view",
      "type": "function"
    },
    {
      "inputs": [
        {
          "internalType": "uint256",
          "name": "tokenId",
          "type": "uint256"
        }
      ],
      "name": "tokenURI",
      "outputs": [
        {
          "internalType": "string",
          "name": "",
          "type": "string"
        }
      ],
      "stateMutability": "view",
      "type": "function"
    },
    {
      "inputs": [],
      "name": "totalSupply",
      "outputs": [
        {
          "internalType": "uint256",
          "name": "",
          "type": "uint256"
        }
      ],
      "stateMutability": "view",
      "type": "function"
    },
    {
      "inputs": [
        {
          "internalType": "address",
          "name": "from",
          "type": "address"
        },
        {
          "internalType": "address",
          "name": "to",
          "type": "address"
        },
        {
          "internalType": "uint256",
          "name": "tokenId",
          "type": "uint256"
        }
      ],
      "name": "transferFrom",
      "outputs": [],
      "stateMutability": "nonpayable",
      "type": "function"
    },
    {
      "inputs": [],
      "name": "votingTokenName",
      "outputs": [
        {
          "internalType": "string",
          "name": "",
          "type": "string"
        }
      ],
      "stateMutability": "view",
      "type": "function"
    },
    {
      "inputs": [],
      "name": "votingTokenVersion",
      "outputs": [
        {
          "internalType": "string",
          "name": "",
          "type": "string"
        }
      ],
      "stateMutability": "pure",
      "type": "function"
    }
  ],
  "bytecode": "0x61012060405234801561001157600080fd5b50604080518082018252600c81526b4e666665656c73576f6a616b60a01b60208083019182528351808501855260018152603160f81b908201529151902060c08181527fc89efdaa54c0f20c7adf612882df0950f5a951637e0307cdcb4c672f298b8bc660e08190524660a081815286517f8b73c3c69bb8fe3d512ecc4cf759cc79239f7b179b0ffacaa9a75d522b39400f818801819052818901969096526060810193909352608080840192909252308382015286518084039091018152919092019094528351939092019290922090526101005260805160a05160c05160e0516101005161322b61012b6000396000611673015260006116c20152600061169d015260006116210152600061164a015261322b6000f3fe608060405234801561001057600080fd5b50600436106101cf5760003560e01c80636fcfff4511610104578063b88d4fde116100a2578063e469899e11610071578063e469899e146103d8578063e985e9c5146103eb578063ec1f26401461040e578063f1127ed81461042157600080fd5b8063b88d4fde1461038c578063c3cda5201461039f578063c87b56dd146103b2578063d505accf146103c557600080fd5b80638e539e8c116100de5780638e539e8c1461034b57806395d89b411461035e5780639ab24eb014610366578063a22cb4651461037957600080fd5b80636fcfff45146102fd57806370a08231146103255780637ecebe001461033857600080fd5b80633644e515116101715780634f6ccce71161014b5780634f6ccce7146102b1578063587cde1e146102c45780635c19a95c146102d75780636352211e146102ea57600080fd5b80633644e515146102835780633a46b1a81461028b57806342842e0e1461029e57600080fd5b80630c9b91f4116101ad5780630c9b91f41461023f57806318160ddd1461024757806323b872dd1461025d5780632f745c591461027057600080fd5b8063081812fc146101d457806308728a6a14610204578063095ea7b31461022a575b600080fd5b6101e76101e2366004612b65565b61045e565b6040516001600160a01b0390911681526020015b60405180910390f35b6040805180820190915260018152603160f81b60208201525b6040516101fb9190612bd6565b61023d610238366004612c05565b6104f4565b005b61021d61060a565b61024f6106a2565b6040519081526020016101fb565b61023d61026b366004612c2f565b6106b5565b61024f61027e366004612c05565b6106e6565b61024f610788565b61024f610299366004612c05565b610797565b61023d6102ac366004612c2f565b6107aa565b61024f6102bf366004612b65565b6107c5565b6101e76102d2366004612c6b565b610860565b61023d6102e5366004612c6b565b610890565b6101e76102f8366004612b65565b61089d565b61031061030b366004612c6b565b6108ae565b60405163ffffffff90911681526020016101fb565b61024f610333366004612c6b565b6108dd565b61024f610346366004612c6b565b610972565b61024f610359366004612b65565b61099f565b61021d6109aa565b61024f610374366004612c6b565b6109c2565b61023d610387366004612c96565b610a66565b61023d61039a366004612d55565b610b3c565b61023d6103ad366004612de2565b610b74565b61021d6103c0366004612b65565b610caa565b61023d6103d3366004612e3a565b610e5d565b61023d6103e6366004612ec4565b610fc0565b6103fe6103f9366004612f3d565b6110ac565b60405190151581526020016101fb565b61024f61041c366004612c6b565b6110e9565b61043461042f366004612f67565b611189565b60408051825163ffffffff1681526020928301516001600160e01b031692810192909252016101fb565b600061046982611219565b6104cf5760405162461bcd60e51b815260206004820152602c60248201527f4552433732313a20617070726f76656420717565727920666f72206e6f6e657860448201526b34b9ba32b73a103a37b5b2b760a11b60648201526084015b60405180910390fd5b6104d7611247565b60009283526004016020525060409020546001600160a01b031690565b60006104ff8261126b565b9050806001600160a01b0316836001600160a01b0316141561056d5760405162461bcd60e51b815260206004820152602160248201527f4552433732313a20617070726f76616c20746f2063757272656e74206f776e656044820152603960f91b60648201526084016104c6565b336001600160a01b0382161480610589575061058981336110ac565b6105fb5760405162461bcd60e51b815260206004820152603860248201527f4552433732313a20617070726f76652063616c6c6572206973206e6f74206f7760448201527f6e6572206e6f7220617070726f76656420666f7220616c6c000000000000000060648201526084016104c6565b61060583836112f3565b505050565b6060610614611247565b805461061f90612fa7565b80601f016020809104026020016040519081016040528092919081815260200182805461064b90612fa7565b80156106985780601f1061066d57610100808354040283529160200191610698565b820191906000526020600020905b81548152906001019060200180831161067b57829003601f168201915b5050505050905090565b60006106ac611247565b60080154919050565b6106bf338261136e565b6106db5760405162461bcd60e51b81526004016104c690612fdc565b610605838383611430565b60006106f1836108dd565b82106107535760405162461bcd60e51b815260206004820152602b60248201527f455243373231456e756d657261626c653a206f776e657220696e646578206f7560448201526a74206f6620626f756e647360a81b60648201526084016104c6565b61075b611247565b6001600160a01b039390931660009081526006909301602090815260408085209385529290525090205490565b600061079261161d565b905090565b60006107a38383611710565b9392505050565b61060583838360405180602001604052806000815250610b3c565b60006107cf6106a2565b82106108325760405162461bcd60e51b815260206004820152602c60248201527f455243373231456e756d657261626c653a20676c6f62616c20696e646578206f60448201526b7574206f6620626f756e647360a01b60648201526084016104c6565b61083a611247565b600801828154811061084e5761084e61302d565b90600052602060002001549050919050565b600061086a611247565b6001600160a01b039283166000908152600b919091016020526040902054909116919050565b61089a338261178e565b50565b60006108a88261126b565b92915050565b60006108a86108bb611247565b6001600160a01b0384166000908152600c91909101602052604090205461181d565b60006001600160a01b0382166109485760405162461bcd60e51b815260206004820152602a60248201527f4552433732313a2062616c616e636520717565727920666f7220746865207a65604482015269726f206164647265737360b01b60648201526084016104c6565b610950611247565b6001600160a01b03909216600090815260039290920160205250604090205490565b60006108a861097f611247565b6001600160a01b0384166000908152601091909101602052604090205490565b60006108a882611886565b60606109b4611247565b600101805461061f90612fa7565b6000806109cd611247565b6001600160a01b0384166000908152600c91909101602052604090205490508015610a53576109fa611247565b6001600160a01b0384166000908152600c9190910160205260409020610a21600183613059565b81548110610a3157610a3161302d565b60009182526020909120015464010000000090046001600160e01b0316610a56565b60005b6001600160e01b03169392505050565b6001600160a01b038216331415610abf5760405162461bcd60e51b815260206004820152601960248201527f4552433732313a20617070726f766520746f2063616c6c65720000000000000060448201526064016104c6565b80610ac8611247565b336000818152600592909201602090815260408084206001600160a01b03881680865290835293819020805460ff19169515159590951790945592518415158152919290917f17307eab39ab6107e8899845ad3d59bd9653f200f220920489ca2b5937696c31910160405180910390a35050565b610b46338361136e565b610b625760405162461bcd60e51b81526004016104c690612fdc565b610b6e848484846118eb565b50505050565b83421115610bc45760405162461bcd60e51b815260206004820152601e60248201527f455243373231566f7465733a207369676e61747572652065787069726564000060448201526064016104c6565b604080517fe48329057bfd03d55e49b547132e39cffd9c1820ad7b9d4c5307691425d15adf60208201526001600160a01b038816918101919091526060810186905260808101859052600090610c3e90610c369060a0016040516020818303038152906040528051906020012061191e565b85858561196c565b9050610c4981611994565b8614610c975760405162461bcd60e51b815260206004820152601a60248201527f455243373231566f7465733a20696e76616c6964206e6f6e636500000000000060448201526064016104c6565b610ca1818861178e565b50505050505050565b6060610cb582611219565b610d195760405162461bcd60e51b815260206004820152602f60248201527f4552433732314d657461646174613a2055524920717565727920666f72206e6f60448201526e3732bc34b9ba32b73a103a37b5b2b760891b60648201526084016104c6565b6000610d23611247565b6000848152600a91909101602052604090208054610d4090612fa7565b80601f0160208091040260200160405190810160405280929190818152602001828054610d6c90612fa7565b8015610db95780601f10610d8e57610100808354040283529160200191610db9565b820191906000526020600020905b815481529060010190602001808311610d9c57829003601f168201915b505050505090506000610dd760408051602081019091526000815290565b9050805160001415610dea575092915050565b815115610e1c578082604051602001610e04929190613070565b60405160208183030381529060405292505050919050565b6000815111610e3a5760405180602001604052806000815250610e55565b80610e44856119d5565b604051602001610e04929190613070565b949350505050565b83421115610ead5760405162461bcd60e51b815260206004820152601e60248201527f4552433732315065726d69743a206578706972656420646561646c696e65000060448201526064016104c6565b60007f6e71edae12b1b97f4d1f60370fef10105fa2faae0126114a169c64845d6126c9888888610edc8c611994565b6040805160208101969096526001600160a01b0394851690860152929091166060840152608083015260a082015260c0810186905260e0016040516020818303038152906040528051906020012090506000610f378261191e565b90506000610f478287878761196c565b9050896001600160a01b0316816001600160a01b031614610faa5760405162461bcd60e51b815260206004820152601f60248201527f4552433732315065726d69743a20696e76616c6964207369676e61747572650060448201526064016104c6565b610fb489896112f3565b50505050505050505050565b7fc2a8298caf52168bfd940aaa692106d17150cb73b7cadfb02ecda97d63bd92ea546001600160a01b0316331461100c5760405163ab1e998f60e01b81523360048201526024016104c6565b6000611016611247565b90505b80601201600061102a836013015490565b815260208101919091526040016000205460ff1615611058576110538160130180546001019055565b611019565b61106d85611067836013015490565b86611ad3565b61108161107b826013015490565b84611aee565b61109561108f826013015490565b83611be7565b6110a58160130180546001019055565b5050505050565b60006110b6611247565b6001600160a01b039384166000908152600591909101602090815260408083209490951682529290925250205460ff1690565b60006001600160a01b03821661115f5760405162461bcd60e51b815260206004820152603560248201527f455243373231566f7465733a20766f74696e672077656967687420717565727960448201527420666f7220746865207a65726f206164647265737360581b60648201526084016104c6565b611167611247565b6001600160a01b039092166000908152600f9290920160205250604090205490565b60408051808201909152600080825260208201526111a5611247565b6001600160a01b0384166000908152600c9190910160205260409020805463ffffffff84169081106111d9576111d961302d565b60009182526020918290206040805180820190915291015463ffffffff8116825264010000000090046001600160e01b0316918101919091529392505050565b600080611224611247565b60009384526002016020526040909220546001600160a01b031690911415919050565b7fc9ce3e88240d7a5adc099054a6d18f83695b024b1d6fa0406c6c90f2540b4afa90565b600080611276611247565b600084815260029190910160205260409020546001600160a01b03169050806108a85760405162461bcd60e51b815260206004820152602960248201527f4552433732313a206f776e657220717565727920666f72206e6f6e657869737460448201526832b73a103a37b5b2b760b91b60648201526084016104c6565b816112fc611247565b60008381526004919091016020526040902080546001600160a01b0319166001600160a01b03928316179055819083166113358261126b565b6001600160a01b03167f8c5be1e5ebec7d5bd14f71427d1e84f3dd0314c0f7b2291e5b200ac8c7c3b92560405160405180910390a45050565b600061137982611219565b6113da5760405162461bcd60e51b815260206004820152602c60248201527f4552433732313a206f70657261746f7220717565727920666f72206e6f6e657860448201526b34b9ba32b73a103a37b5b2b760a11b60648201526084016104c6565b60006113e58361126b565b9050806001600160a01b0316846001600160a01b031614806114205750836001600160a01b03166114158461045e565b6001600160a01b0316145b80610e555750610e5581856110ac565b826001600160a01b03166114438261126b565b6001600160a01b0316146114ab5760405162461bcd60e51b815260206004820152602960248201527f4552433732313a207472616e73666572206f6620746f6b656e2074686174206960448201526839903737ba1037bbb760b91b60648201526084016104c6565b6001600160a01b03821661150d5760405162461bcd60e51b8152602060048201526024808201527f4552433732313a207472616e7366657220746f20746865207a65726f206164646044820152637265737360e01b60648201526084016104c6565b611518838383611ce8565b6115236000826112f3565b600161152d611247565b6003016000856001600160a01b03166001600160a01b0316815260200190815260200160002060008282546115629190613059565b9091555060019050611572611247565b6003016000846001600160a01b03166001600160a01b0316815260200190815260200160002060008282546115a7919061309f565b909155508290506115b6611247565b6000838152600291909101602052604080822080546001600160a01b0319166001600160a01b0394851617905551839285811692908716917fddf252ad1be2c89b69c2b068fc378daa952ba7f163c4a11628f55a4df523b3ef9190a4610605838383611d61565b60007f000000000000000000000000000000000000000000000000000000000000000046141561166c57507f000000000000000000000000000000000000000000000000000000000000000090565b50604080517f00000000000000000000000000000000000000000000000000000000000000006020808301919091527f0000000000000000000000000000000000000000000000000000000000000000828401527f000000000000000000000000000000000000000000000000000000000000000060608301524660808301523060a0808401919091528351808403909101815260c0909201909252805191012090565b60004382106117615760405162461bcd60e51b815260206004820181905260248201527f455243373231566f7465733a20626c6f636b206e6f7420796574206d696e656460448201526064016104c6565b6107a361176c611247565b6001600160a01b0385166000908152600c919091016020526040902083611d96565b600061179983610860565b905060006117a6846110e9565b9050826117b1611247565b6001600160a01b038681166000818152600b93909301602052604080842080546001600160a01b03191695841695909517909455925186821693918616927f3134e8a2e6d97e929a7e54011ea5485d7d196dd5f0ba4d4ef95803e8e3fc257f91a4610b6e828483611e53565b600063ffffffff8211156118825760405162461bcd60e51b815260206004820152602660248201527f53616665436173743a2076616c756520646f65736e27742066697420696e203360448201526532206269747360d01b60648201526084016104c6565b5090565b60004382106118d75760405162461bcd60e51b815260206004820181905260248201527f455243373231566f7465733a20626c6f636b206e6f7420796574206d696e656460448201526064016104c6565b6108a86118e2611247565b600d0183611d96565b6118f6848484611430565b61190284848484611fa8565b610b6e5760405162461bcd60e51b81526004016104c6906130b7565b60006108a861192b61161d565b8360405161190160f01b6020820152602281018390526042810182905260009060620160405160208183030381529060405280519060200120905092915050565b600080600061197d878787876120b2565b9150915061198a8161219f565b5095945050505050565b60008061199f611247565b6001600160a01b03841660009081526010919091016020526040902090506119c5815490565b8154600101825591505b50919050565b6060816119f95750506040805180820190915260018152600360fc1b602082015290565b8160005b8115611a235780611a0d81613109565b9150611a1c9050600a8361313a565b91506119fd565b60008167ffffffffffffffff811115611a3e57611a3e612cc9565b6040519080825280601f01601f191660200182016040528015611a68576020820181803683370190505b5090505b8415610e5557611a7d600183613059565b9150611a8a600a8661314e565b611a9590603061309f565b60f81b818381518110611aaa57611aaa61302d565b60200101906001600160f81b031916908160001a905350611acc600a8661313a565b9450611a6c565b6106058383836040518060200160405280600081525061235a565b611af782611219565b611b5a5760405162461bcd60e51b815260206004820152602e60248201527f45524337323155524953746f726167653a2055524920736574206f66206e6f6e60448201526d32bc34b9ba32b73a103a37b5b2b760911b60648201526084016104c6565b6000815111611bb75760405162461bcd60e51b815260206004820152602360248201527f45524337323155524953746f726167653a20496e76616c696420746f6b656e2060448201526255524960e81b60648201526084016104c6565b80611bc0611247565b600a0160008481526020019081526020016000209080519060200190610605929190612ad5565b611bf082611219565b611c4f5760405162461bcd60e51b815260206004820152602a60248201527f4552433732313a20646174612073746f7261676520666f72206e6f6e657869736044820152693a32b73a103a37b5b2b760b11b60648201526084016104c6565b6000815111611cac5760405162461bcd60e51b815260206004820152602360248201527f4552433732313a206576656e742064617461206973206e6f74207370656369666044820152621a595960ea1b60648201526084016104c6565b817fa56598db3c57d5bcfa13dca25b481f939643c1685c7a614c05f562ac5872ba5982604051611cdc9190612bd6565b60405180910390a25050565b6001600160a01b038316611d0457611cff816123b7565b611d27565b816001600160a01b0316836001600160a01b031614611d2757611d2783826123ff565b6001600160a01b038216611d3e5761060581612511565b826001600160a01b0316826001600160a01b03161461060557610605828261260b565b610605611d6d84610860565b611d7684610860565b611d7e611247565b6000858152600e919091016020526040902054611e53565b8154600090815b81811015611dfa576000611db1828461266a565b905084868281548110611dc657611dc661302d565b60009182526020909120015463ffffffff161115611de657809250611df4565b611df181600161309f565b91505b50611d9d565b8115611e3e5784611e0c600184613059565b81548110611e1c57611e1c61302d565b60009182526020909120015464010000000090046001600160e01b0316611e41565b60005b6001600160e01b031695945050505050565b816001600160a01b0316836001600160a01b031614158015611e755750600081115b15610605576001600160a01b03831615611f0f57600080611ebc611e97611247565b6001600160a01b0387166000908152600c919091016020526040902061268585612691565b91509150846001600160a01b03167fdec2bacdd2f05b59de34da9b523dff8be42e5e38e818c82fdb0bae774387a7248383604051611f04929190918252602082015260400190565b60405180910390a250505b6001600160a01b0382161561060557600080611f51611f2c611247565b6001600160a01b0386166000908152600c919091016020526040902061280a85612691565b91509150836001600160a01b03167fdec2bacdd2f05b59de34da9b523dff8be42e5e38e818c82fdb0bae774387a7248383604051611f99929190918252602082015260400190565b60405180910390a25050505050565b60006001600160a01b0384163b156120aa57604051630a85bd0160e11b81526001600160a01b0385169063150b7a0290611fec903390899088908890600401613162565b602060405180830381600087803b15801561200657600080fd5b505af1925050508015612036575060408051601f3d908101601f191682019092526120339181019061319f565b60015b612090573d808015612064576040519150601f19603f3d011682016040523d82523d6000602084013e612069565b606091505b5080516120885760405162461bcd60e51b81526004016104c6906130b7565b805181602001fd5b6001600160e01b031916630a85bd0160e11b149050610e55565b506001610e55565b6000807f7fffffffffffffffffffffffffffffff5d576e7357a4501ddfe92f46681b20a08311156120e95750600090506003612196565b8460ff16601b1415801561210157508460ff16601c14155b156121125750600090506004612196565b6040805160008082526020820180845289905260ff881692820192909252606081018690526080810185905260019060a0016020604051602081039080840390855afa158015612166573d6000803e3d6000fd5b5050604051601f1901519150506001600160a01b03811661218f57600060019250925050612196565b9150600090505b94509492505050565b60008160048111156121b3576121b36131c9565b14156121bc5750565b60018160048111156121d0576121d06131c9565b141561221e5760405162461bcd60e51b815260206004820152601860248201527f45434453413a20696e76616c6964207369676e6174757265000000000000000060448201526064016104c6565b6002816004811115612232576122326131c9565b14156122805760405162461bcd60e51b815260206004820152601f60248201527f45434453413a20696e76616c6964207369676e6174757265206c656e6774680060448201526064016104c6565b6003816004811115612294576122946131c9565b14156122ed5760405162461bcd60e51b815260206004820152602260248201527f45434453413a20696e76616c6964207369676e6174757265202773272076616c604482015261756560f01b60648201526084016104c6565b6004816004811115612301576123016131c9565b141561089a5760405162461bcd60e51b815260206004820152602260248201527f45434453413a20696e76616c6964207369676e6174757265202776272076616c604482015261756560f01b60648201526084016104c6565b811561238257600361236a611247565b6000858152600e9190910160205260409020556123a0565b600261238c611247565b6000858152600e9190910160205260409020555b6123aa8484612816565b6119026000858584611fa8565b6123bf611247565b600801546123cb611247565b600083815260099190910160205260409020556123e6611247565b6008018054600181018255600091825260209091200155565b6000600161240c846108dd565b6124169190613059565b90506000612422611247565b6000848152600791909101602052604090205490508181146124be576000612448611247565b6001600160a01b03861660009081526006919091016020908152604080832086845290915290205490508061247b611247565b6001600160a01b038716600090815260069190910160209081526040808320868452909152902055816124ac611247565b60009283526007016020526040909120555b6124c6611247565b600084815260079190910160205260408120556124e1611247565b6001600160a01b039094166000908152600694909401602090815260408086209386529290525082209190915550565b6000600161251d611247565b6008015461252b9190613059565b90506000612537611247565b600084815260099190910160205260408120549150612554611247565b60080183815481106125685761256861302d565b906000526020600020015490508061257e611247565b60080183815481106125925761259261302d565b600091825260209091200155816125a7611247565b600083815260099190910160205260409020556125c2611247565b600085815260099190910160205260408120556125dd611247565b6008018054806125ef576125ef6131df565b6001900381819060005260206000200160009055905550505050565b6000612616836108dd565b905081612621611247565b6001600160a01b03851660009081526006919091016020908152604080832085845290915290205580612652611247565b60009384526007016020526040909220919091555050565b6000612679600284841861313a565b6107a39084841661309f565b60006107a38284613059565b8254600090819080156126dc57856126aa600183613059565b815481106126ba576126ba61302d565b60009182526020909120015464010000000090046001600160e01b03166126df565b60005b6001600160e01b031692506126f883858763ffffffff16565b915060008111801561273657504386612712600184613059565b815481106127225761272261302d565b60009182526020909120015463ffffffff16145b156127965761274482612a6c565b86612750600184613059565b815481106127605761276061302d565b9060005260206000200160000160046101000a8154816001600160e01b0302191690836001600160e01b03160217905550612801565b8560405180604001604052806127ab4361181d565b63ffffffff1681526020016127bf85612a6c565b6001600160e01b0390811690915282546001810184556000938452602093849020835194909301519091166401000000000263ffffffff909316929092179101555b50935093915050565b60006107a3828461309f565b6001600160a01b03821661286c5760405162461bcd60e51b815260206004820181905260248201527f4552433732313a206d696e7420746f20746865207a65726f206164647265737360448201526064016104c6565b61287581611219565b156128c25760405162461bcd60e51b815260206004820152601c60248201527f4552433732313a20746f6b656e20616c7265616479206d696e7465640000000060448201526064016104c6565b6001600160e01b038111156129335760405162461bcd60e51b815260206004820152603160248201527f455243373231566f7465733a20746f74616c20737570706c79207269736b73206044820152706f766572666c6f77696e6720766f74657360781b60648201526084016104c6565b61293f60008383611ce8565b6001612949611247565b6003016000846001600160a01b03166001600160a01b03168152602001908152602001600020600082825461297e919061309f565b9091555082905061298d611247565b6000838152600291909101602052604080822080546001600160a01b0319166001600160a01b03948516179055518392851691907fddf252ad1be2c89b69c2b068fc378daa952ba7f163c4a11628f55a4df523b3ef908290a46129f260008383611d61565b60006129fc611247565b6000838152600e919091016020526040902054905080612a1a611247565b600f016000856001600160a01b03166001600160a01b031681526020019081526020016000206000828254612a4f919061309f565b909155506110a59050612a60611247565b600d0161280a83612691565b60006001600160e01b038211156118825760405162461bcd60e51b815260206004820152602760248201527f53616665436173743a2076616c756520646f65736e27742066697420696e20326044820152663234206269747360c81b60648201526084016104c6565b828054612ae190612fa7565b90600052602060002090601f016020900481019282612b035760008555612b49565b82601f10612b1c57805160ff1916838001178555612b49565b82800160010185558215612b49579182015b82811115612b49578251825591602001919060010190612b2e565b506118829291505b808211156118825760008155600101612b51565b600060208284031215612b7757600080fd5b5035919050565b60005b83811015612b99578181015183820152602001612b81565b83811115610b6e5750506000910152565b60008151808452612bc2816020860160208601612b7e565b601f01601f19169290920160200192915050565b6020815260006107a36020830184612baa565b80356001600160a01b0381168114612c0057600080fd5b919050565b60008060408385031215612c1857600080fd5b612c2183612be9565b946020939093013593505050565b600080600060608486031215612c4457600080fd5b612c4d84612be9565b9250612c5b60208501612be9565b9150604084013590509250925092565b600060208284031215612c7d57600080fd5b6107a382612be9565b80358015158114612c0057600080fd5b60008060408385031215612ca957600080fd5b612cb283612be9565b9150612cc060208401612c86565b90509250929050565b634e487b7160e01b600052604160045260246000fd5b600067ffffffffffffffff80841115612cfa57612cfa612cc9565b604051601f8501601f19908116603f01168101908282118183101715612d2257612d22612cc9565b81604052809350858152868686011115612d3b57600080fd5b858560208301376000602087830101525050509392505050565b60008060008060808587031215612d6b57600080fd5b612d7485612be9565b9350612d8260208601612be9565b925060408501359150606085013567ffffffffffffffff811115612da557600080fd5b8501601f81018713612db657600080fd5b612dc587823560208401612cdf565b91505092959194509250565b803560ff81168114612c0057600080fd5b60008060008060008060c08789031215612dfb57600080fd5b612e0487612be9565b95506020870135945060408701359350612e2060608801612dd1565b92506080870135915060a087013590509295509295509295565b600080600080600080600060e0888a031215612e5557600080fd5b612e5e88612be9565b9650612e6c60208901612be9565b95506040880135945060608801359350612e8860808901612dd1565b925060a0880135915060c0880135905092959891949750929550565b600082601f830112612eb557600080fd5b6107a383833560208501612cdf565b60008060008060808587031215612eda57600080fd5b612ee385612be9565b9350612ef160208601612c86565b9250604085013567ffffffffffffffff80821115612f0e57600080fd5b612f1a88838901612ea4565b93506060870135915080821115612f3057600080fd5b50612dc587828801612ea4565b60008060408385031215612f5057600080fd5b612f5983612be9565b9150612cc060208401612be9565b60008060408385031215612f7a57600080fd5b612f8383612be9565b9150602083013563ffffffff81168114612f9c57600080fd5b809150509250929050565b600181811c90821680612fbb57607f821691505b602082108114156119cf57634e487b7160e01b600052602260045260246000fd5b60208082526031908201527f4552433732313a207472616e736665722063616c6c6572206973206e6f74206f6040820152701ddb995c881b9bdc88185c1c1c9bdd9959607a1b606082015260800190565b634e487b7160e01b600052603260045260246000fd5b634e487b7160e01b600052601160045260246000fd5b60008282101561306b5761306b613043565b500390565b60008351613082818460208801612b7e565b835190830190613096818360208801612b7e565b01949350505050565b600082198211156130b2576130b2613043565b500190565b60208082526032908201527f4552433732313a207472616e7366657220746f206e6f6e20455243373231526560408201527131b2b4bb32b91034b6b83632b6b2b73a32b960711b606082015260800190565b600060001982141561311d5761311d613043565b5060010190565b634e487b7160e01b600052601260045260246000fd5b60008261314957613149613124565b500490565b60008261315d5761315d613124565b500690565b6001600160a01b038581168252841660208201526040810183905260806060820181905260009061319590830184612baa565b9695505050505050565b6000602082840312156131b157600080fd5b81516001600160e01b0319811681146107a357600080fd5b634e487b7160e01b600052602160045260246000fd5b634e487b7160e01b600052603160045260246000fdfea26469706673582212204f02478c62edb10f2f7288dbfbe8363cba517d1c4a9a59ac52cf7b061909afbe64736f6c63430008090033",
  "linkReferences": {},
  "deployedLinkReferences": {}
}