{
  "_format": "hh-sol-artifact-1",
  "contractName": "GovernorFacet",
  "sourceName": "contracts/facets/GovernorFacet.sol",
  "abi": [
    {
      "inputs": [],
      "stateMutability": "nonpayable",
      "type": "constructor"
    },
    {
      "inputs": [
        {
          "internalType": "address",
          "name": "sender",
          "type": "address"
        }
      ],
      "name": "OnlyGovernance",
      "type": "error"
    },
    {
      "inputs": [],
      "name": "OnlyInit",
      "type": "error"
    },
    {
      "inputs": [],
      "name": "OnlyRaffleInit",
      "type": "error"
    },
    {
      "inputs": [],
      "name": "COUNTING_MODE",
      "outputs": [
        {
          "internalType": "string",
          "name": "",
          "type": "string"
        }
      ],
      "stateMutability": "pure",
      "type": "function"
    },
    {
      "inputs": [
        {
          "internalType": "uint256",
          "name": "proposalId",
          "type": "uint256"
        },
        {
          "internalType": "uint8",
          "name": "support",
          "type": "uint8"
        }
      ],
      "name": "castVote",
      "outputs": [
        {
          "internalType": "uint256",
          "name": "",
          "type": "uint256"
        }
      ],
      "stateMutability": "nonpayable",
      "type": "function"
    },
    {
      "inputs": [
        {
          "internalType": "uint256",
          "name": "proposalId",
          "type": "uint256"
        },
        {
          "internalType": "uint8",
          "name": "support",
          "type": "uint8"
        },
        {
          "internalType": "uint8",
          "name": "v",
          "type": "uint8"
        },
        {
          "internalType": "bytes32",
          "name": "r",
          "type": "bytes32"
        },
        {
          "internalType": "bytes32",
          "name": "s",
          "type": "bytes32"
        }
      ],
      "name": "castVoteBySig",
      "outputs": [
        {
          "internalType": "uint256",
          "name": "",
          "type": "uint256"
        }
      ],
      "stateMutability": "nonpayable",
      "type": "function"
    },
    {
      "inputs": [
        {
          "internalType": "uint256",
          "name": "proposalId",
          "type": "uint256"
        },
        {
          "internalType": "uint8",
          "name": "support",
          "type": "uint8"
        },
        {
          "internalType": "string",
          "name": "reason",
          "type": "string"
        }
      ],
      "name": "castVoteWithReason",
      "outputs": [
        {
          "internalType": "uint256",
          "name": "",
          "type": "uint256"
        }
      ],
      "stateMutability": "nonpayable",
      "type": "function"
    },
    {
      "inputs": [
        {
          "internalType": "address[]",
          "name": "targets",
          "type": "address[]"
        },
        {
          "internalType": "uint256[]",
          "name": "values",
          "type": "uint256[]"
        },
        {
          "internalType": "bytes[]",
          "name": "calldatas",
          "type": "bytes[]"
        },
        {
          "internalType": "bytes32",
          "name": "descriptionHash",
          "type": "bytes32"
        }
      ],
      "name": "execute",
      "outputs": [
        {
          "internalType": "uint256",
          "name": "",
          "type": "uint256"
        }
      ],
      "stateMutability": "payable",
      "type": "function"
    },
    {
      "inputs": [
        {
          "internalType": "address",
          "name": "account",
          "type": "address"
        },
        {
          "internalType": "uint256",
          "name": "blockNumber",
          "type": "uint256"
        }
      ],
      "name": "getVotes",
      "outputs": [
        {
          "internalType": "uint256",
          "name": "",
          "type": "uint256"
        }
      ],
      "stateMutability": "view",
      "type": "function"
    },
    {
      "inputs": [],
      "name": "governorName",
      "outputs": [
        {
          "internalType": "string",
          "name": "",
          "type": "string"
        }
      ],
      "stateMutability": "view",
      "type": "function"
    },
    {
      "inputs": [],
      "name": "governorVersion",
      "outputs": [
        {
          "internalType": "string",
          "name": "",
          "type": "string"
        }
      ],
      "stateMutability": "pure",
      "type": "function"
    },
    {
      "inputs": [
        {
          "internalType": "uint256",
          "name": "proposalId",
          "type": "uint256"
        },
        {
          "internalType": "address",
          "name": "account",
          "type": "address"
        }
      ],
      "name": "hasVoted",
      "outputs": [
        {
          "internalType": "bool",
          "name": "",
          "type": "bool"
        }
      ],
      "stateMutability": "view",
      "type": "function"
    },
    {
      "inputs": [
        {
          "internalType": "address[]",
          "name": "targets",
          "type": "address[]"
        },
        {
          "internalType": "uint256[]",
          "name": "values",
          "type": "uint256[]"
        },
        {
          "internalType": "bytes[]",
          "name": "calldatas",
          "type": "bytes[]"
        },
        {
          "internalType": "bytes32",
          "name": "descriptionHash",
          "type": "bytes32"
        }
      ],
      "name": "hashProposal",
      "outputs": [
        {
          "internalType": "uint256",
          "name": "",
          "type": "uint256"
        }
      ],
      "stateMutability": "pure",
      "type": "function"
    },
    {
      "inputs": [
        {
          "internalType": "uint256",
          "name": "proposalId",
          "type": "uint256"
        }
      ],
      "name": "proposalDeadline",
      "outputs": [
        {
          "internalType": "uint256",
          "name": "",
          "type": "uint256"
        }
      ],
      "stateMutability": "view",
      "type": "function"
    },
    {
      "inputs": [
        {
          "internalType": "uint256",
          "name": "proposalId",
          "type": "uint256"
        }
      ],
      "name": "proposalEta",
      "outputs": [
        {
          "internalType": "uint256",
          "name": "",
          "type": "uint256"
        }
      ],
      "stateMutability": "view",
      "type": "function"
    },
    {
      "inputs": [
        {
          "internalType": "uint256",
          "name": "proposalId",
          "type": "uint256"
        }
      ],
      "name": "proposalSnapshot",
      "outputs": [
        {
          "internalType": "uint256",
          "name": "",
          "type": "uint256"
        }
      ],
      "stateMutability": "view",
      "type": "function"
    },
    {
      "inputs": [],
      "name": "proposalThreshold",
      "outputs": [
        {
          "internalType": "uint256",
          "name": "",
          "type": "uint256"
        }
      ],
      "stateMutability": "pure",
      "type": "function"
    },
    {
      "inputs": [
        {
          "internalType": "uint256",
          "name": "proposalId",
          "type": "uint256"
        }
      ],
      "name": "proposalVotes",
      "outputs": [
        {
          "internalType": "uint256",
          "name": "againstVotes",
          "type": "uint256"
        },
        {
          "internalType": "uint256",
          "name": "forVotes",
          "type": "uint256"
        },
        {
          "internalType": "uint256",
          "name": "abstainVotes",
          "type": "uint256"
        }
      ],
      "stateMutability": "view",
      "type": "function"
    },
    {
      "inputs": [
        {
          "internalType": "address[]",
          "name": "targets",
          "type": "address[]"
        },
        {
          "internalType": "uint256[]",
          "name": "values",
          "type": "uint256[]"
        },
        {
          "internalType": "bytes[]",
          "name": "calldatas",
          "type": "bytes[]"
        },
        {
          "internalType": "string",
          "name": "description",
          "type": "string"
        }
      ],
      "name": "propose",
      "outputs": [
        {
          "internalType": "uint256",
          "name": "",
          "type": "uint256"
        }
      ],
      "stateMutability": "nonpayable",
      "type": "function"
    },
    {
      "inputs": [
        {
          "internalType": "address[]",
          "name": "targets",
          "type": "address[]"
        },
        {
          "internalType": "uint256[]",
          "name": "values",
          "type": "uint256[]"
        },
        {
          "internalType": "bytes[]",
          "name": "calldatas",
          "type": "bytes[]"
        },
        {
          "internalType": "bytes32",
          "name": "descriptionHash",
          "type": "bytes32"
        }
      ],
      "name": "queue",
      "outputs": [
        {
          "internalType": "uint256",
          "name": "",
          "type": "uint256"
        }
      ],
      "stateMutability": "nonpayable",
      "type": "function"
    },
    {
      "inputs": [
        {
          "internalType": "uint256",
          "name": "blockNumber",
          "type": "uint256"
        }
      ],
      "name": "quorum",
      "outputs": [
        {
          "internalType": "uint256",
          "name": "",
          "type": "uint256"
        }
      ],
      "stateMutability": "view",
      "type": "function"
    },
    {
      "inputs": [],
      "name": "quorumDenominator",
      "outputs": [
        {
          "internalType": "uint256",
          "name": "",
          "type": "uint256"
        }
      ],
      "stateMutability": "pure",
      "type": "function"
    },
    {
      "inputs": [],
      "name": "quorumNumerator",
      "outputs": [
        {
          "internalType": "uint256",
          "name": "",
          "type": "uint256"
        }
      ],
      "stateMutability": "view",
      "type": "function"
    },
    {
      "inputs": [
        {
          "internalType": "uint256",
          "name": "proposalId",
          "type": "uint256"
        }
      ],
      "name": "state",
      "outputs": [
        {
          "internalType": "enum LibGovernor.ProposalState",
          "name": "",
          "type": "uint8"
        }
      ],
      "stateMutability": "view",
      "type": "function"
    },
    {
      "inputs": [],
      "name": "timelock",
      "outputs": [
        {
          "internalType": "address",
          "name": "",
          "type": "address"
        }
      ],
      "stateMutability": "view",
      "type": "function"
    },
    {
      "inputs": [
        {
          "internalType": "uint256",
          "name": "newQuorumNumerator",
          "type": "uint256"
        }
      ],
      "name": "updateQuorumNumerator",
      "outputs": [],
      "stateMutability": "nonpayable",
      "type": "function"
    },
    {
      "inputs": [
        {
          "internalType": "contract TimelockController",
          "name": "newTimelock",
          "type": "address"
        }
      ],
      "name": "updateTimelock",
      "outputs": [],
      "stateMutability": "nonpayable",
      "type": "function"
    },
    {
      "inputs": [],
      "name": "votingDelay",
      "outputs": [
        {
          "internalType": "uint256",
          "name": "",
          "type": "uint256"
        }
      ],
      "stateMutability": "pure",
      "type": "function"
    },
    {
      "inputs": [],
      "name": "votingPeriod",
      "outputs": [
        {
          "internalType": "uint256",
          "name": "",
          "type": "uint256"
        }
      ],
      "stateMutability": "pure",
      "type": "function"
    }
  ],
  "bytecode": "0x61012060405234801561001157600080fd5b50604080518082018252600f81526e27333332b2b639a3b7bb32b93737b960891b60208083019182528351808501855260018152603160f81b908201529151902060c08181527fc89efdaa54c0f20c7adf612882df0950f5a951637e0307cdcb4c672f298b8bc660e08190524660a081815286517f8b73c3c69bb8fe3d512ecc4cf759cc79239f7b179b0ffacaa9a75d522b39400f818801819052818901969096526060810193909352608080840192909252308382015286518084039091018152919092019094528351939092019290922090526101005260805160a05160c05160e0516101005161284261012e6000396000611654015260006116a30152600061167e015260006116020152600061162b01526128426000f3fe6080604052600436106101815760003560e01c806397c1e206116100d1578063c01f9e371161008a578063dd4e2ba511610064578063dd4e2ba514610443578063eb9019d414610489578063f40193da146104a9578063f8ce560a146104d357600080fd5b8063c01f9e37146103d6578063c59057e4146103f6578063d33219b41461041657600080fd5b806397c1e2061461034b57806397c3d3341461036d578063a7713a7014610381578063a890c91014610396578063ab58fb8e146103b6578063b58131b01461021f57600080fd5b80633bccf4fd1161013e578063544ffc9c11610118578063544ffc9c146102b057806356781388146102eb5780637b3c71d31461030b5780637d5e81e21461032b57600080fd5b80633bccf4fd146102335780633e4f49e614610253578063438596321461028057600080fd5b806302a251a31461018657806306f3f9e6146101aa578063160cbed7146101cc5780632656227d146101ec5780632d63f693146101ff5780633932abb11461021f575b600080fd5b34801561019257600080fd5b5061b2fa5b6040519081526020015b60405180910390f35b3480156101b657600080fd5b506101ca6101c5366004611db2565b6104f3565b005b3480156101d857600080fd5b506101976101e7366004612003565b61054b565b6101976101fa366004612003565b610562565b34801561020b57600080fd5b5061019761021a366004611db2565b610646565b34801561022b57600080fd5b506001610197565b34801561023f57600080fd5b5061019761024e3660046120a8565b610657565b34801561025f57600080fd5b5061027361026e366004611db2565b6106eb565b6040516101a1919061210c565b34801561028c57600080fd5b506102a061029b366004612134565b6106f6565b60405190151581526020016101a1565b3480156102bc57600080fd5b506102d06102cb366004611db2565b610732565b604080519384526020840192909252908201526060016101a1565b3480156102f757600080fd5b50610197610306366004612164565b610768565b34801561031757600080fd5b50610197610326366004612190565b610791565b34801561033757600080fd5b50610197610346366004612216565b6107e3565b34801561035757600080fd5b50610360610aab565b6040516101a19190612323565b34801561037957600080fd5b506064610197565b34801561038d57600080fd5b50610197610b46565b3480156103a257600080fd5b506101ca6103b1366004612336565b610b59565b3480156103c257600080fd5b506101976103d1366004611db2565b610b88565b3480156103e257600080fd5b506101976103f1366004611db2565b610c4a565b34801561040257600080fd5b50610197610411366004612003565b610c99565b34801561042257600080fd5b5061042b610ca7565b6040516001600160a01b0390911681526020016101a1565b34801561044f57600080fd5b506040805180820190915260208082527f737570706f72743d627261766f2671756f72756d3d666f722c6162737461696e90820152610360565b34801561049557600080fd5b506101976104a4366004612353565b610cc3565b3480156104b557600080fd5b506040805180820190915260018152603160f81b6020820152610360565b3480156104df57600080fd5b506101976104ee366004611db2565b610ccf565b6104fb610ca7565b6001600160a01b0316336001600160a01b03161461053f57335b60405163ab1e998f60e01b81526001600160a01b0390911660048201526024015b60405180910390fd5b61054881610cda565b50565b600061055985858585610db3565b95945050505050565b60008061057186868686610ff8565b9050600061057e826106eb565b90506004816007811115610594576105946120f6565b14806105b1575060058160078111156105af576105af6120f6565b145b6105cd5760405162461bcd60e51b81526004016105369061237f565b60016105d7611032565b600084815260029182016020908152604091829020909201805460ff19169315159390931790925590518381527f712ae1383f79ac853f8d882153778e0260ef8f03b504e2866e0593e04d2b291f910160405180910390a161063c8288888888611056565b5095945050505050565b6000610651826110d3565b92915050565b604080517f150214d74d59b7d1e90c73fc22ef3d991dd0a76b046543d4d80ab92d2a50328f602082015290810186905260ff8516606082015260009081906106c3906106bb906080016040516020818303038152906040528051906020012061110f565b86868661115d565b90506106e08782886040518060200160405280600081525061117b565b979650505050505050565b600061065182611296565b6000610700611032565b60008481526003918201602090815260408083206001600160a01b03871684529093019052205460ff16905092915050565b600080600080610740611032565b6000958652600301602052505060409092208054600182015460029092015490949193509150565b6000803390506107898482856040518060200160405280600081525061117b565b949350505050565b6000803390506107d986828787878080601f01602080910402602001604051908101604052809392919081815260200183838082843760009201919091525061117b92505050565b9695505050505050565b600060016107f6336104a46001436123d6565b101561085e5760405162461bcd60e51b815260206004820152603160248201527f476f7665726e6f723a2070726f706f73657220766f7465732062656c6f7720706044820152701c9bdc1bdcd85b081d1a1c995cda1bdb19607a1b6064820152608401610536565b60006108738686868680519060200120610ff8565b905084518651146108965760405162461bcd60e51b8152600401610536906123ed565b83518651146108b75760405162461bcd60e51b8152600401610536906123ed565b60008651116109085760405162461bcd60e51b815260206004820152601860248201527f476f7665726e6f723a20656d7074792070726f706f73616c00000000000000006044820152606401610536565b6000610912611032565b60008381526002919091016020908152604091829020825191820190925281546001600160401b031690819052909150156109995760405162461bcd60e51b815260206004820152602160248201527f476f7665726e6f723a2070726f706f73616c20616c72656164792065786973746044820152607360f81b6064820152608401610536565b60006109a560016114dd565b6109ae436114dd565b6109b8919061242e565b905060006109c761b2fa6114dd565b6109d1908361242e565b835467ffffffffffffffff19166001600160401b038416178455905060018301805467ffffffffffffffff19166001600160401b0383161790557f7d84a6263ae0d98d3329bd7b46bb4e8d6f98cd35a7adb45c274c8b7fd5ebd5e084338b8b8d516001600160401b03811115610a4957610a49611dcb565b604051908082528060200260200182016040528015610a7c57816020015b6060815260200190600190039081610a675790505b508c88888e604051610a969998979695949392919061251f565b60405180910390a15091979650505050505050565b6060610ab5611032565b6001018054610ac39061260e565b80601f0160208091040260200160405190810160405280929190818152602001828054610aef9061260e565b8015610b3c5780601f10610b1157610100808354040283529160200191610b3c565b820191906000526020600020905b815481529060010190602001808311610b1f57829003601f168201915b5050505050905090565b6000610b50611032565b60060154905090565b610b61610ca7565b6001600160a01b0316336001600160a01b031614610b7f5733610515565b61054881611549565b600080610b93611032565b600401546001600160a01b031663d45c4435610bad611032565b6005016000868152602001908152602001600020546040518263ffffffff1660e01b8152600401610be091815260200190565b60206040518083038186803b158015610bf857600080fd5b505afa158015610c0c573d6000803e3d6000fd5b505050506040513d601f19601f82011682018060405250810190610c309190612649565b905080600114610c405780610c43565b60005b9392505050565b6000610c8a610c57611032565b6000848152600291909101602090815260409182902082519182019092526001909101546001600160401b031681525190565b6001600160401b031692915050565b600061055985858585610ff8565b6000610cb1611032565b600401546001600160a01b0316919050565b6000610c4383836115c5565b6000610651826115d1565b6000610ce4611032565b90506064821115610d6b5760405162461bcd60e51b8152602060048201526044602482018190527f476f7665726e6f72566f74657351756f72756d4672616374696f6e3a2071756f908201527f72756d4e756d657261746f72206f7665722051554f52554d5f44454e4f4d494e60648201526320aa27a960e11b608482015260a401610536565b6006810180549083905560408051828152602081018590527f0553476bf02ef2726e8ce5ced78d63e26e602e4a2257b1f559418e24b4633997910160405180910390a1505050565b600080610dc286868686610ff8565b90506004610dcf82611296565b6007811115610de057610de06120f6565b14610dfd5760405162461bcd60e51b81526004016105369061237f565b6000610e07611032565b6004908101546040805163793d064960e11b815290516001600160a01b039092169263f27a0c92928282019260209290829003018186803b158015610e4b57600080fd5b505afa158015610e5f573d6000803e3d6000fd5b505050506040513d601f19601f82011682018060405250810190610e839190612649565b9050610e8d611032565b60049081015460405163b1c5f42760e01b81526001600160a01b039091169163b1c5f42791610ec7918b918b918b916000918c9101612662565b60206040518083038186803b158015610edf57600080fd5b505afa158015610ef3573d6000803e3d6000fd5b505050506040513d601f19601f82011682018060405250810190610f179190612649565b610f1f611032565b60008481526005919091016020526040902055610f3a611032565b6004908101546040516308f2a0bb60e41b81526001600160a01b0390911691638f2a0bb091610f76918b918b918b916000918c918a91016126b0565b600060405180830381600087803b158015610f9057600080fd5b505af1158015610fa4573d6000803e3d6000fd5b505050507f9a2e42fd6722813d69113e7d0079d3d940171428df7373df9c7f7617cfda2892828242610fd69190612708565b6040805192835260208301919091520160405180910390a15095945050505050565b6000848484846040516020016110119493929190612720565b60408051601f19818403018152919052805160209091012095945050505050565b7fc2a8298caf52168bfd940aaa692106d17150cb73b7cadfb02ecda97d63bd92e690565b61105e611032565b60049081015460405163e38335e560e01b81526001600160a01b039091169163e38335e591349161109a918991899189916000918a9101612662565b6000604051808303818588803b1580156110b357600080fd5b505af11580156110c7573d6000803e3d6000fd5b50505050505050505050565b6000610c8a6110e0611032565b60008481526002919091016020908152604091829020825191820190925290546001600160401b031681525190565b600061065161111c6115fe565b8360405161190160f01b6020820152602281018390526042810182905260009060620160405160208183030381529060405280519060200120905092915050565b600080600061116e878787876116f1565b9150915061063c816117de565b600080611186611032565b600087815260029190910160205260409020905060016111a587611296565b60078111156111b6576111b66120f6565b1461120f5760405162461bcd60e51b815260206004820152602360248201527f476f7665726e6f723a20766f7465206e6f742063757272656e746c792061637460448201526269766560e81b6064820152608401610536565b604080516020810190915281546001600160401b0316908190526000906112379087906115c5565b905061124587878784611999565b856001600160a01b03167fb8e138887d0aa13bab447e82de9d5c1777041ecd21ca36ba824ff1e6c07ddda488878488604051611284949392919061276b565b60405180910390a29695505050505050565b6000806112a1611032565b6000848152600291820160209081526040808320815160a08101835281546001600160401b039081166080830190815282528351808601855260018401549091168152938101939093529093015460ff80821615801595840195909552610100909104161515606082015292509061131b575060076113f2565b81606001511561132d575060026113f2565b815151436001600160401b03909116111561134a575060006113f2565b602082015151436001600160401b03909116111561136a575060016113f2565b6113778260200151611b2d565b156113aa5761138584611b5c565b8015611395575061139584611ba9565b6113a05760036113a3565b60045b90506113f2565b60405162461bcd60e51b815260206004820152601d60248201527f476f7665726e6f723a20756e6b6e6f776e2070726f706f73616c2069640000006044820152606401610536565b6004816007811115611406576114066120f6565b14611412579392505050565b600061141c611032565b6000868152600591909101602052604090205490508061143e57509392505050565b611446611032565b600490810154604051632ab0f52960e01b81529182018390526001600160a01b031690632ab0f5299060240160206040518083038186803b15801561148a57600080fd5b505afa15801561149e573d6000803e3d6000fd5b505050506040513d601f19601f820116820180604052508101906114c29190612793565b156114d257506007949350505050565b506005949350505050565b60006001600160401b038211156115455760405162461bcd60e51b815260206004820152602660248201527f53616665436173743a2076616c756520646f65736e27742066697420696e203660448201526534206269747360d01b6064820152608401610536565b5090565b7f08f74ea46ef7894f65eabfb5e6e695de773a000b47c529ab559178069b226401611572611032565b60040154604080516001600160a01b03928316815291841660208301520160405180910390a1806115a1611032565b60040180546001600160a01b0319166001600160a01b039290921691909117905550565b6000610c438383611bd1565b600060646115dd611032565b600601546115ea84611c63565b6115f491906127b5565b61065191906127d4565b60007f000000000000000000000000000000000000000000000000000000000000000046141561164d57507f000000000000000000000000000000000000000000000000000000000000000090565b50604080517f00000000000000000000000000000000000000000000000000000000000000006020808301919091527f0000000000000000000000000000000000000000000000000000000000000000828401527f000000000000000000000000000000000000000000000000000000000000000060608301524660808301523060a0808401919091528351808403909101815260c0909201909252805191012090565b6000807f7fffffffffffffffffffffffffffffff5d576e7357a4501ddfe92f46681b20a083111561172857506000905060036117d5565b8460ff16601b1415801561174057508460ff16601c14155b1561175157506000905060046117d5565b6040805160008082526020820180845289905260ff881692820192909252606081018690526080810185905260019060a0016020604051602081039080840390855afa1580156117a5573d6000803e3d6000fd5b5050604051601f1901519150506001600160a01b0381166117ce576000600192509250506117d5565b9150600090505b94509492505050565b60008160048111156117f2576117f26120f6565b14156117fb5750565b600181600481111561180f5761180f6120f6565b141561185d5760405162461bcd60e51b815260206004820152601860248201527f45434453413a20696e76616c6964207369676e617475726500000000000000006044820152606401610536565b6002816004811115611871576118716120f6565b14156118bf5760405162461bcd60e51b815260206004820152601f60248201527f45434453413a20696e76616c6964207369676e6174757265206c656e677468006044820152606401610536565b60038160048111156118d3576118d36120f6565b141561192c5760405162461bcd60e51b815260206004820152602260248201527f45434453413a20696e76616c6964207369676e6174757265202773272076616c604482015261756560f01b6064820152608401610536565b6004816004811115611940576119406120f6565b14156105485760405162461bcd60e51b815260206004820152602260248201527f45434453413a20696e76616c6964207369676e6174757265202776272076616c604482015261756560f01b6064820152608401610536565b60006119a3611032565b60008681526003918201602090815260408083206001600160a01b038916845293840190915290205490915060ff1615611a2f5760405162461bcd60e51b815260206004820152602760248201527f476f7665726e6f72566f74696e6753696d706c653a20766f746520616c726561604482015266191e4818d85cdd60ca1b6064820152608401610536565b6001600160a01b03841660009081526003820160205260408120805460ff1916600117905560ff168360ff161415611a805781816000016000828254611a759190612708565b90915550611b269050565b60ff831660011415611aa05781816001016000828254611a759190612708565b60ff831660021415611ac05781816002016000828254611a759190612708565b60405162461bcd60e51b815260206004820152603560248201527f476f7665726e6f72566f74696e6753696d706c653a20696e76616c69642076616044820152746c756520666f7220656e756d20566f74655479706560581b6064820152608401610536565b5050505050565b6000611b4282516001600160401b0316151590565b801561065157505051436001600160401b03909116111590565b600080611b67611032565b60008481526003919091016020526040902060028101546001820154919250611b8f91612708565b611ba0611b9b856110d3565b6115d1565b11159392505050565b600080611bb4611032565b600093845260030160205250506040902080546001909101541190565b6000438210611c225760405162461bcd60e51b815260206004820181905260248201527f455243373231566f7465733a20626c6f636b206e6f7420796574206d696e65646044820152606401610536565b6001600160a01b03831660009081527fc9ce3e88240d7a5adc099054a6d18f83695b024b1d6fa0406c6c90f2540b4b0660205260409020610c439083611cda565b6000438210611cb45760405162461bcd60e51b815260206004820181905260248201527f455243373231566f7465733a20626c6f636b206e6f7420796574206d696e65646044820152606401610536565b6106517fc9ce3e88240d7a5adc099054a6d18f83695b024b1d6fa0406c6c90f2540b4b07835b8154600090815b81811015611d3e576000611cf58284611d97565b905084868281548110611d0a57611d0a6127f6565b60009182526020909120015463ffffffff161115611d2a57809250611d38565b611d35816001612708565b91505b50611ce1565b8115611d825784611d506001846123d6565b81548110611d6057611d606127f6565b60009182526020909120015464010000000090046001600160e01b0316611d85565b60005b6001600160e01b031695945050505050565b6000611da660028484186127d4565b610c4390848416612708565b600060208284031215611dc457600080fd5b5035919050565b634e487b7160e01b600052604160045260246000fd5b604051601f8201601f191681016001600160401b0381118282101715611e0957611e09611dcb565b604052919050565b60006001600160401b03821115611e2a57611e2a611dcb565b5060051b60200190565b6001600160a01b038116811461054857600080fd5b600082601f830112611e5a57600080fd5b81356020611e6f611e6a83611e11565b611de1565b82815260059290921b84018101918181019086841115611e8e57600080fd5b8286015b84811015611eb2578035611ea581611e34565b8352918301918301611e92565b509695505050505050565b600082601f830112611ece57600080fd5b81356020611ede611e6a83611e11565b82815260059290921b84018101918181019086841115611efd57600080fd5b8286015b84811015611eb25780358352918301918301611f01565b60006001600160401b03831115611f3157611f31611dcb565b611f44601f8401601f1916602001611de1565b9050828152838383011115611f5857600080fd5b828260208301376000602084830101529392505050565b600082601f830112611f8057600080fd5b81356020611f90611e6a83611e11565b82815260059290921b84018101918181019086841115611faf57600080fd5b8286015b84811015611eb25780356001600160401b03811115611fd25760008081fd5b8701603f81018913611fe45760008081fd5b611ff5898683013560408401611f18565b845250918301918301611fb3565b6000806000806080858703121561201957600080fd5b84356001600160401b038082111561203057600080fd5b61203c88838901611e49565b9550602087013591508082111561205257600080fd5b61205e88838901611ebd565b9450604087013591508082111561207457600080fd5b5061208187828801611f6f565b949793965093946060013593505050565b803560ff811681146120a357600080fd5b919050565b600080600080600060a086880312156120c057600080fd5b853594506120d060208701612092565b93506120de60408701612092565b94979396509394606081013594506080013592915050565b634e487b7160e01b600052602160045260246000fd5b602081016008831061212e57634e487b7160e01b600052602160045260246000fd5b91905290565b6000806040838503121561214757600080fd5b82359150602083013561215981611e34565b809150509250929050565b6000806040838503121561217757600080fd5b8235915061218760208401612092565b90509250929050565b600080600080606085870312156121a657600080fd5b843593506121b660208601612092565b925060408501356001600160401b03808211156121d257600080fd5b818701915087601f8301126121e657600080fd5b8135818111156121f557600080fd5b88602082850101111561220757600080fd5b95989497505060200194505050565b6000806000806080858703121561222c57600080fd5b84356001600160401b038082111561224357600080fd5b61224f88838901611e49565b9550602087013591508082111561226557600080fd5b61227188838901611ebd565b9450604087013591508082111561228757600080fd5b61229388838901611f6f565b935060608701359150808211156122a957600080fd5b508501601f810187136122bb57600080fd5b6122ca87823560208401611f18565b91505092959194509250565b6000815180845260005b818110156122fc576020818501810151868301820152016122e0565b8181111561230e576000602083870101525b50601f01601f19169290920160200192915050565b602081526000610c4360208301846122d6565b60006020828403121561234857600080fd5b8135610c4381611e34565b6000806040838503121561236657600080fd5b823561237181611e34565b946020939093013593505050565b60208082526021908201527f476f7665726e6f723a2070726f706f73616c206e6f74207375636365737366756040820152601b60fa1b606082015260800190565b634e487b7160e01b600052601160045260246000fd5b6000828210156123e8576123e86123c0565b500390565b60208082526021908201527f476f7665726e6f723a20696e76616c69642070726f706f73616c206c656e67746040820152600d60fb1b606082015260800190565b60006001600160401b03808316818516808303821115612450576124506123c0565b01949350505050565b600081518084526020808501945080840160005b838110156124925781516001600160a01b03168752958201959082019060010161246d565b509495945050505050565b600081518084526020808501945080840160005b83811015612492578151875295820195908201906001016124b1565b6000815180845260208085019450848260051b860182860160005b858110156125125783830389526125008383516122d6565b988501989250908401906001016124e8565b5090979650505050505050565b60006101208b8352602060018060a01b038c16818501528160408501526125488285018c612459565b9150838203606085015261255c828b61249d565b915083820360808501528189518084528284019150828160051b850101838c0160005b838110156125ad57601f1987840301855261259b8383516122d6565b9486019492509085019060010161257f565b505086810360a08801526125c1818c6124cd565b9450505050506125dc60c08401876001600160401b03169052565b6001600160401b03851660e08401528281036101008401526125fe81856122d6565b9c9b505050505050505050505050565b600181811c9082168061262257607f821691505b6020821081141561264357634e487b7160e01b600052602260045260246000fd5b50919050565b60006020828403121561265b57600080fd5b5051919050565b60a08152600061267560a0830188612459565b8281036020840152612687818861249d565b9050828103604084015261269b81876124cd565b60608401959095525050608001529392505050565b60c0815260006126c360c0830189612459565b82810360208401526126d5818961249d565b905082810360408401526126e981886124cd565b60608401969096525050608081019290925260a0909101529392505050565b6000821982111561271b5761271b6123c0565b500190565b6080815260006127336080830187612459565b8281036020840152612745818761249d565b9050828103604084015261275981866124cd565b91505082606083015295945050505050565b84815260ff841660208201528260408201526080606082015260006107d960808301846122d6565b6000602082840312156127a557600080fd5b81518015158114610c4357600080fd5b60008160001904831182151516156127cf576127cf6123c0565b500290565b6000826127f157634e487b7160e01b600052601260045260246000fd5b500490565b634e487b7160e01b600052603260045260246000fdfea26469706673582212209ec39b1046ac6fd0d75484262c67501e9a6106784214289e9d314e5a6058666264736f6c63430008090033",
  "linkReferences": {},
  "deployedLinkReferences": {}
}